:020000040000FA
:10000000C0530020511C0000EF4F00003D1C0000B9
:100010003D1C00003D1C00003D1C000000000000D5
:100020000000000000000000000000002D1D000086
:100030003D1C0000000000003D1C00003D1C0000B5
:10004000A51E0000A51E0000A51E0000A51E0000A4
:10005000A51E0000A51E0000A51E0000A51E000094
:10006000A51E0000A51E0000A51E0000A51E000084
:10007000A51E0000A51E0000A51E0000A51E000074
:10008000A51E0000A51E0000A51E0000A51E000064
:10009000A51E0000A51E0000A51E0000A51E000054
:1000A000A51E0000A51E0000A51E0000A51E000044
:1000B000A51E0000A51E0000A51E0000A51E000034
:1000C000A51E0000A51E0000A51E0000A51E000024
:1000D000A51E0000A51E0000A51E000053B94AB9C8
:1000E000002908BF00281CBF4FF0FF314FF0FF3040
:1000F00000F00CB8ADF1080C6DE904CE00F008F882
:10010000DDF804E0DDE9022304B07047704700BF6A
:100110002DE9F04786468C460846089E15467446EB
:100120001946002B40F0C2808542B2FA82F245D9CE
:100130004AB1C2F1200300FA02FC2EFA03F3954003
:1001400043EA0C0C94404FEA154EA8B2BCFBFEF8F3
:10015000230C0EFB18CC08FB00F943EA0C4399452D
:1001600028D9EB1808F1FF3704D2994502D9A8F134
:1001700002072B44A3EB0903A4B2B3FBFEFC0EFB66
:100180001C330CFB00F044EA0344A04214D92C19A0
:100190000CF1FF3304D2A04202D9ACF102032C448B
:1001A000241A43EA07401EB1D44000233460736030
:1001B000BDE8F0874746DDE76346F1E792BB431BA6
:1001C00001214FEA154EAFB2B3FBFEFC200C0EFB33
:1001D0001C330CFB07F840EA0343984562D9EB183F
:1001E0000CF1FF3004D2984502D9ACF102002B4447
:1001F000A3EB0803A4B2B3FBFEFC0EFB1C330CFB09
:1002000007F744EA0344A7424ED92C190CF1FF33F7
:1002100004D2A74202D9ACF102032C44E41B43EA06
:100220000040C0E7C2F1200320FA03F1954090405E
:100230002EFA03F303434FEA154EAFB2B1FBFEFCB7
:100240000EFB1C10190C0CFB07F841EA0041884515
:1002500004FA02F422D969180CF1FF3004D288455F
:1002600002D9ACF102002944A1EB08019BB2B1FB19
:10027000FEFC0EFB1C110CFB07F743EA01439F42F7
:100280000ED9EB180CF1FF3104D29F4202D9ACF128
:1002900002012B44DB1B41EA004192E76046E3E7A1
:1002A0006146F7E76046A3E76346B7E7834206D9AE
:1002B00016B9002108467BE7C6E900E0F9E7B3FA82
:1002C00083F78FB9834201D3724508D8BEEB02048D
:1002D00060EB030301209C461EB9002168E7384605
:1002E000FAE7C6E9004CF8E7C7F1200CBB4022FA58
:1002F0000CF41C432EFA0CF120FA0CF3B840014325
:100300004FEA14490EFA07F5B3FBF9F81FFA84FE19
:1003100009FB18300B0C08FB0EFA43EA00439A4520
:1003200002FA07F240D9E31808F1FF3004D29A45E7
:1003300002D9A8F102002344A3EB0A0389B2B3FB5C
:10034000F9F809FB183308FB0EFE41EA03418E451C
:100350002CD9611808F1FF3304D28E4502D9A8F1D7
:100360000203214443EA0040A0FB0298A1EB0E01E6
:100370004145CE46434602D306D14D4504D2B9EBA2
:10038000020E68EB04030138002EA6D0B5EB0E0276
:1003900061EB030101FA0CFC22FA07F34CEA0303B8
:1003A000F940C6E9003198E74046C5E74346D9E73A
:1003B00030B5314B314AC3F800263148C3F8042622
:1003C00087B0C3F808264921C3F80C26C3F81026C5
:1003D000C3F81426C3F81826C3F81C2604F056FDEB
:1003E00000F082F803A800F07DFD264B1B688342D5
:1003F00004D02548452104F049FDFEE7059A23482D
:10040000492104F043FD039921484B7D0A7DC98AA7
:100410000091492104F03AFD1E48492104F036FDBF
:100420009DF8100002A900F03DF8044608B104F060
:1004300018FE029A059B184D1344039A128913441F
:100440002B6002F03DFC01F081F801F055F801F05D
:1004500029FC2B681B6883F3088884F31488BFF396
:100460006F8FBFF36F8F2B6858680C4B98470C4801
:10047000452104F00BFDFEE7000001403546526EB9
:1004800076770000240500208F770000B277000007
:10049000E1770000FF770000B0010020010000209C
:1004A0002478000008B5024638B1054800234521EC
:1004B00004F0ECFC6FF0150008BD0860FCE700BF1D
:1004C0004778000021B1012906D06FF01500704770
:1004D000044B53F830007047024B03EBC0035868DD
:1004E000704700BFE874000002484FF4C05103F0A9
:1004F0001BB900BF680A00202DE9F04FD5B0DFF826
:100500006081609CD8F8005003945F9C02940DF1C8
:1005100030095E9CCDF804900094619F82468B4622
:10052000164604F0E1F828B1D8F80050284655B036
:10053000BDE8F08F57B14A4614AC134603CBA34233
:10054000386079601A4607F10807F6D10023009356
:1005500032464FF6FF73594606A804F00AF90746DB
:100560000028E1D1314650460B9C04F0D6F9A04258
:10057000DAD3DFF8F0B04FF0FF340DF1120304AA24
:1005800005A906A804F043F90028CDDB64D105993C
:1005900006A804F088F950B9BDF81200324A4FF6A7
:1005A000FF7132F8023B8B42BED09842F9D1BDF8C0
:1005B00012A0BAF1100F17D0BAF1200F2BD0BAF158
:1005C000010FDAD1BDF81030202BADD8059914AA4F
:1005D000304604F076FC0028A6D19DF8101014A82F
:1005E00000F046F80446C8E7BDF81070202F9BD1F4
:1005F00005993B4614AA304604F063FC002893D1C9
:100600003A4614A9484604F05CF9184B1B6883422B
:100610008AD10127B1E7002C1BDBDBF800309C42BC
:1006200017DABDF81030B3F5807F7FF47DAF059900
:1006300014AA304604F045FC00287FF475AFE4B2FC
:10064000BDF81030009414AA5146484600F0DCF87A
:1006500005464FF0FF3490E7002F7FF467AF63E764
:1006600044000020F07400004877000024050020BA
:100670002DE9F0412029A2B080460D4605D94FF062
:10068000FF34204622B0BDE8F081124B124E1F68A5
:100690000024BC42F3DA08A806F0D5F8002108A827
:1006A00003F07AF9736856F8081B1A6808A806F070
:1006B000D3F8694608A806F00EF908A806F0C7F8AE
:1006C0002A464146684606F0A5FD0028D9D00134E7
:1006D000DFE700BFF0740000F47400002DE9F0477C
:1006E0008946ADF5AE6D1946454B1E68DDF890356F
:1006F000B3F5807F7ED1202A7CD15CAA03F004F977
:100700000446002876D19DF86F32BC2B72D10DF1D2
:1007100090080190DF2745460AA806F094F80021CA
:100720000AA803F039F920220DF24F210AA806F099
:1007300093F804220DEB02010AA806F08DF802A935
:100740000AA806F0C8F80AA806F081F8202F9DF83C
:100750000730BA46A8BF4FF0200A01334046524640
:1007600002A9A7EB0A078DF8073006F03DFD002F20
:10077000D044D1DCAC465CAB2946DF22087813F8C4
:10078000017B013A80EA070001F8010BF6D12B78D2
:1007900003F07F032B701CF8017B5FBB0134BE2C80
:1007A000F9D195F8BE30012B24D10AA806F04BF8F8
:1007B00039460AA803F0F0F8124908220AA806F000
:1007C0004BF8494620220AA806F046F820220DF2EE
:1007D0004F110AA806F040F802A90AA806F07BF813
:1007E0000AA806F034F820220DF24F2102A804F0E6
:1007F00068F8064630460DF5AE6DBDE8F08700BFDF
:10080000440000206D7800002DE9F04F9A46A3B017
:100810002F4B9DF8B0501E68074604A888469146A5
:1008200005F0D2FF0922012104A803F02FF8294B7B
:1008300053F83540029403EBC50303AA5B681B68B9
:100840001C442146302302A805F0A4F8002838D122
:10085000DDE9023213449C4233D106AA214602A8A4
:1008600005F0ACF868BB0DF1200B5A46214602A8F2
:1008700005F0A4F8054620BB06A805F051FC029B34
:1008800005909C421DD1CDE9005B2B462A4606A966
:1008900004A805F056FFA0B904A803F00FF880B92A
:1008A00006A805F03DFC059004A805F091FF504511
:1008B00007D100904B464246394604A8FFF70EFF89
:1008C000064604A805F086FF304623B0BDE8F08F49
:1008D00044000020F4740000084A0B78400052F8ED
:1008E00020108B4208D0013052F82000834214BF00
:1008F0004FF0FF30A5207047A5207047FC74000022
:100900001FB5582303FB01006A46046AA16810233F
:100910001039204604F0D5FA034628B1227804485D
:10092000452104F0B3FA0024204604B010BD00BFF6
:100930007578000038B50E4B002918BF0B4643628E
:1009400003F5DC7303650121044604F02DF858B962
:100950000221204604F028F8054638B9206A04F040
:10096000EFFAE065284638BD0125FBE70925F9E7E0
:10097000B40100202DE9F3471E4683688B420546EB
:100980000C46174643D95B1A934240D386B36A4656
:1009900003F08FFE00283CDB013FDDF800803C4483
:1009A0001D4FDFF878906A462146284603F081FE05
:1009B00000282EDBDDE9004A28465246214604F095
:1009C000AAFA002825DBC7F80096C7F80496C7F8EE
:1009D0000896C7F80C96C7F81096C7F81496C7F88B
:1009E0001896C7F81C966EB1444512D9013CDAE757
:1009F000511E21446A4603F05CFE002809DBDDF845
:100A00000080CDE75444A04503D30134CBE74FF039
:100A1000FF3002B0BDE8F087000001403546526E5D
:100A200010B52C2359434218146A0CB904F019FB71
:100A300041580B4B994206D1D16813895B1802D2F9
:100A40005189C91801D3002009E0A3689942FAD25C
:100A5000136940F60C621A420CBF0120002010BD41
:100A60003DB8F3961FB52C2303FB02010A6A0AB9AD
:100A700004F0F7FA0023CDE9023301934FF48073B9
:100A80000093034BFFF738FD05B05DF804FB00BF92
:100A9000682200202DE9F0412C2707FB01070446BE
:100AA000D7F820800D461646B8F1000F01D104F0AA
:100AB000D8FA03F0CAFF10B93B69DB061DD5C5B1F2
:100AC0004146204604F049F8F379042B0CD1216A01
:100AD0000029ECD0204604F040F8024648B91548F9
:100AE000492104F0D3F904E0002002F079F9042848
:100AF000EDD0114B1868BDE8F08129462046FFF77C
:100B00008FFF70B90D4B18680D4B1B688342F2D0F4
:100B10006DB10121404603F093FF0A4A0A4845217E
:100B2000DFE72A4631462046FFF79CFFECE7074AFD
:100B3000F4E700BFB378000040000020440000202C
:100B400024050020A9780000F2780000A1780000B8
:100B5000004870472809002073B50D46044600215F
:100B60002846CDE9001103F0C3FF58B323681F4E98
:100B7000B34206D101AA204603F0D1FE08B104F029
:100B800070FAE36AB34206D16A460121204603F0B7
:100B9000C6FE0028F3D1DDE90032934288BF0193FD
:100BA000019BAB60019A2946204600F09DFB104B4B
:100BB0001A68002A03DD0F48572104F067F9002066
:100BC00002B070BD01462046FFF79AFE0646002897
:100BD000D5D005F1080103F083FE0028CFD1AB6822
:100BE0000193304604F06CF9DCE700BF3DB8F396A2
:100BF000880900201A7900002DE9F84FDFF870B05D
:100C00001C4C1D4D884691469A4600260B9B9E42E1
:100C100001D300200FE00B9B154A9F1BB7F5806F97
:100C200028BF4FF480673B4606EB0A01404604F0BC
:100C300048F910B10120BDE8F88F0A993B465A46A1
:100C40007118484604F052F90028F3D1C4F8005650
:100C50003E44C4F80456C4F80856C4F80C56C4F808
:100C60001056C4F81456C4F81856C4F81C56CDE7EC
:100C700028050020000001403546526EF0B587B0CF
:100C80000E46044603F006FF014620B18D4845217B
:100C900004F0FCF8FEE72046FFF74CFE054678B965
:100CA00000221146204603F0DDFE054610B38648BB
:100CB0000022572104F0EAF8012384F8583009E0B3
:100CC00082483722572104F0E1F801239D4284F83D
:100CD0005830E5D194F858308DF80F30042B00F2DD
:100CE0008F80012B00F2948000F0AA80FF2384F80B
:100CF0005830A5E0204600F0F5F90028DCD002A825
:100D000003F0EDFE0146204603F065FF18B1704880
:100D10002A465721CEE702A803F0EAFE80F001013F
:100D200002AAC9B2204603F09DFE02460028BED1A9
:100D300002A803F0DDFEC8BB02A92046FFF70CFFA6
:100D400008B104F08EF99DF80F3084F85830DA1E9F
:100D5000012A19D800F0E8F89DF80F3028B9023BB5
:100D6000022B08D994F8583011E0023BFF22022BE5
:100D700084F858200DD8002000F0C0F80028F1D0E9
:100D8000FF2384F8583004E09A1E022AF3D9FF2B7F
:100D900004D15048452104F079F8D2E700221146E9
:100DA000204603F05FFE002886D0CAE79DF80F704A
:100DB000012F18D1104602F013F8831E022B0546AE
:100DC0000ED802AA39462046FFF764FE424B1B6844
:100DD000984205D0414B1D68A84214BF0525012546
:100DE00084F8585076E7012102AA2046FFF752FE08
:100DF000394B1B6898420CBF9DF80F3005235CE708
:100E0000052B7FF473AF002000F08EF8C0B16DE7C2
:100E100002A92046FFF7A0FE002892D194F858308E
:100E2000DA1E012A0AD800F07FF818B9002000F075
:100E300065F828B1FF2384F8583082E7022BF5D0FB
:100E400094F85830FF2BA4D00022012B244D01929E
:100E500010D01146204603F005FE58B12D6810222F
:100E6000002102A806F0CEF9204603F02BFE28460A
:100E700007B0F0BD002211462046FFF70BFE164FCB
:100E80003B689842EAD12B689842E7D0134B1B6825
:100E90009842E3D00021204603F0FAFD0028DDD17E
:100EA000019B01330193019B012B00D0FEE7206AD7
:100EB00003F0FDFB3071236A5B6834603D68B3600A
:100EC000CDE700BF49790000BC7900007A790000C5
:100ED000E8790000127A000024050020400000207C
:100EE0004400002010B50446002003F077FD0248BE
:100EF0002146FFF7C3FE10BD2809002013B5094B9A
:100F000001A913F8300000F0CBFC48B9019804F0B7
:100F100005FD0446019803F0D3FF204602B010BD42
:100F20000124FAE7047500001FB50F4B01A913F85F
:100F3000300000F0B5FCA8B9019802A901F0FAFE52
:100F4000044668B99DF80B30032B03D1019804F0D7
:100F5000ADFC0446019803F0B3FF204604B010BD79
:100F60000124F7E70124F8E7047500002DE9F341B7
:100F700006460C4617461D460BB9002121E01846CF
:100F800003F0B6FD01460028F7D13046FFF7B8FC64
:100F900018B9012002B0BDE8F08101A903F0A0FC5E
:100FA0000028F6D10199304603F047FE736A59686C
:100FB0006B79012B0CD1002CDFD12B68834298BFB9
:100FC00000212C2303FB0466306AB0B904F049F811
:100FD000022BD2D12B68012B05D98342CDD8B4FA8C
:100FE00084F46409C9E7C8D1002CEAD0012CC4D12B
:100FF0002C79023C18BF0124BFE720233A4603F0B6
:1010000060FF0028C5D1002DC4D03868024BC01A3B
:1010100018BF4FF0FF30BDE73DB8F3962DE9F04F14
:10102000074685B00C46014600201646FFF754FCE3
:10103000051E50DB3846E46D03F045FC5FFA84F989
:101040006B1E09FB03084FF0000A4FF0010B4FF035
:10105000FF349DB9BAF1010F03DD2148452103F0AA
:1010600015FF631C06D0362C2ADC013440F2011334
:101070003460B380284605B0BDE8F08F6B1E009346
:101080000DF10F0201234146384603F01AFF031EFB
:10109000019322DB01220DF10F01384604F0A2FB7F
:1010A000019B40B15B4501D00AF1010A009DA8EB0C
:1010B00009089B46CDE7B4F1FF3F08BF2C46F5E792
:1010C0000223373C7371631004F0010401330134CF
:1010D00033603471CEE70725CCE70125CAE700BFAE
:1010E0001E7A0000F8B5866A456DAE42044608D007
:1010F0006B1CB34205D01748572103F0C7FE0020F0
:10110000F8BD372E19D914485721F6E7626A02EB69
:10111000C3025768226D02EBC3025268BA4202D082
:101120000E485721E9E701339D42EFD1204603F0F5
:10113000B8FD28B90A485721DFE700231F46F3E727
:10114000AE4205D9636A03EBC5035B68BB42E7D1D6
:101150000120D5E7417A0000797A0000A87A0000E2
:10116000D47A000010B588B0044604A9006A01F0E2
:10117000E1FD08B103F075FF9DF81020012A44D06D
:10118000264B2749032A08BF0B469DF813200292DD
:101190009DF8122001929DF81120224800924921C9
:1011A000214A03F073FEE06C06A901F0C3FD04467A
:1011B0000028DFD19DF81820012A28D0174B1849A4
:1011C000032A08BF0B469DF81B2002929DF81A20A7
:1011D00001929DF8192000921248144A492103F007
:1011E00055FE9DF81030012B13D19DF81230032BC2
:1011F0000FD19DF81830012B0BD00D48492103F079
:1012000045FE0224204608B010BD0A4BBDE7094B3D
:10121000D9E70948492103F039FEF3E70D7B0000C7
:10122000167B00002A7B00001C7B00006B7B00000B
:101230007B7B0000117B00009A7B000070B54B683F
:101240001446234A03F0FF23934286B006460D4618
:101250003AD10B68012B37D104A9204601F06AFD71
:1012600008B103F0FEFE9DF81020012A2ED0194B84
:101270001949032A08BF0B469DF8132002929DF8D6
:10128000122001929DF8112000921448144A49211D
:1012900003F0FCFD9DF81030032B15D1214630469C
:1012A00003F05BFC0028DCD1204604F0FFFA0028A4
:1012B000D7D1A968204603F021FB0028D1D12046D0
:1012C00001F016FD0028CCD106B070BD054BD3E768
:1012D000000100040D7B0000167B00002A7B00004B
:1012E0006B7B0000117B00002DE9F04F164687B0A4
:1012F00005460C467C48492103F0C8FD3146284686
:1013000003F09BFC6B6A804620465E6803F0F0FBAE
:10131000E8B1E86D03F06DFBAF6A0023013F334491
:10132000984201D9013FFAE7B84510D36F485721D9
:1013300003F0ACFD07FB06F36D4808FB066257217E
:1013400003F0A4FD0123E37107B0BDE8F08F2F6A1D
:101350000FB903F086FEEB6C0393002BF9D01A460D
:1013600021462846FFF76AFF6379012B54D1DFF845
:1013700084B1C1464BE02268C2F101034344994560
:1013800043D86B6A196853F8390003EBC903012A83
:1013900053F8083CA3EB0103A0EB010A049315D119
:1013A000E368022B0CD03946284603F0D6FB002810
:1013B000CFD122463946284603F0E4FB0028C8D1A5
:1013C0000399284603F0C9FB0028C2D10023324606
:1013D00051463846FFF7CEFA0028BAD1CDE900A62B
:1013E000049B3A4639462846FFF706FC0028B0D150
:1013F0002146284603F089FB23680133236020B18E
:10140000DBF800300133CBF8003009F1FF39B9F1D6
:10141000000FB0D101232360022363714FF0010953
:10142000C84591D3236899455AD36A6A4FEAC903DC
:10143000083B52F83910D2F800B00491D1582A6D07
:10144000D0581368A0EB030A2379012B46D1A1EBF6
:101450000B010023324638460591FFF78BFA00282E
:101460007FF477AF059900910196039953463A4668
:101470002846FFF7C1FB00287FF46BAF21462846C2
:1014800003F043FB0223237118B11A4A1368013396
:1014900013600398002332465146FFF76BFA002889
:1014A0007FF457AF049B039ACDE900A6A3EB0B038F
:1014B00039462846FFF7A0FB00287FF44AAF2146B3
:1014C000284603F022FB23680133236001232371A4
:1014D00030B1084A13680133136001E0022BD8D001
:1014E00009F101099CE700BFB17B0000DA7B000035
:1014F000097C000088090020BFF36F8F72B6124B81
:101500004FF0FF32C3F88020C3F88420C3F888204E
:10151000C3F88C20C3F89020C3F89420C3F8982017
:10152000C3F89C20C3F88021C3F88421C3F8882124
:10153000C3F88C21C3F89021C3F89421C3F89821F3
:10154000C3F89C21704700BF00E100E07FB5344B39
:10155000344C4FF0FF3501265E60C3F84853C3F8A2
:10156000085303F5C04302205E60C3F84853C3F834
:10157000085303F598335E60C3F84853C3F8085323
:10158000C4F8085300F0F2FB00236660C4F84C3145
:10159000D4F84C21C4F81031D4F81021C4F84431E7
:1015A000D4F84421C4F80035D4F80C250092D4F8BE
:1015B00014250192D4F808250292D4F8102503923C
:1015C000C4F80C55C4F81455C4F80855C4F810559F
:1015D000154C684650F8041B4A1C0DD001F01F0240
:1015E000490917D1920002F1A042D2F80017214018
:1015F00041F00201C2F800170133042BEAD10B4A73
:101600004FF0FF33C2F808354FF08042C2F808337C
:1016100004B070BD02F5E072002353F82230FFDE03
:1016200000B0004000200040F0F8FCFF00F0014056
:10163000014B1B68184700BF48000020014B186091
:10164000704700BF4800002030B585B004460D4605
:1016500010220021684605F0D5FD02238DF80230E6
:101660002A46044B01932146684602F0D5FE05B098
:1016700030BD00BF311600002DE9F047058B044650
:101680002807904611D4022905F0070540F0CC80C8
:10169000204603F023FB78B10138218B042811D8B0
:1016A000DFE800F0C2106D85950001290CBF45F000
:1016B000100545F02005258388F31188BFF36F8F4F
:1016C000BDE8F08701F0070AAA4500F0A5800027D1
:1016D000B9463E46A368002B00F0BC8041F00801EB
:1016E000218388F31188BFF36F8FA168002900F070
:1016F000BA800D68002900F0B680D1F80480334626
:1017000052462046C047002D76D02B6829461D46FC
:10171000F0E701F007035A1F012A1BD8002221F02D
:101720000701062B276889B2C4E9002209D13B468C
:1017300003E0628B013262831B68002BF9D141F018
:1017400002012183204603F0C9FA00287AD041F033
:10175000200176E0042B0AD121F0070189B2218310
:10176000204603F0BBFA10B141F020012183218B08
:1017700001F0070AAA454FD00027B946AAE7236916
:1017800021F0070141F00601062DD3F800902183D6
:101790002DD1B9F1000F3FD041F00801218388F32A
:1017A0001188BFF36F8F3A492046C84729E021F0DE
:1017B0000701236941F0040189B2042DD3F8049094
:1017C0002183E6D000273E464FF0040A82E721F04D
:1017D0000701236941F0050189B2052DD3F808906E
:1017E0002183D6D000273E464FF0050A72E7002736
:1017F0003E464FF0060A6DE72B4687E7B9F1000F2A
:10180000D1D1EFF31188202383F31288BFF36F8FB8
:10181000238B23F008032383258BEA062ED525F09E
:101820001003238305F007056669218B002EBFF6A0
:1018300070AF00232768C4E9003321F0070141F0AD
:1018400001012183218B01F0070AAA454FF000090D
:101850007FF440AF002F9CD041F00801218388F332
:101860001188BFF36F8F002FC8D03D6839463346CB
:101870005246204603F05EFA2F46F4E7AB067FF5AA
:101880001BAF25F02003238305F0070500E700BF09
:10189000614D0000014B036000207047107500008F
:1018A00070B5104B1C680D46B4B10F4B196800237E
:1018B0008B4202DB6FF0010070BD224612F8106B04
:1018C000864202D001331446F2E7E06805F04AFC94
:1018D00028B12C600020EFE76FF00C00ECE76FF010
:1018E0001200E9E74C0000201075000010B588B028
:1018F000436802938368C068CDE903320A68002315
:10190000CDE906230C4601AA0449059303F05CFCCB
:10191000079808B9059B236008B010BD5D4F000013
:1019200008B5054803F0CDF9044803F0CAF9BDE84D
:101930000840034803F0C5B9487D0000797D0000E8
:10194000AC7D000008B50348034A0021121A03F0D9
:1019500040FB08BDF8000020702300200748084A1B
:10196000084908B5121A03F036FB0748074A084928
:10197000BDE80840121A03F02EBB00BF4000002053
:10198000F8000020847F00000000002040000020BC
:10199000447F000030BFFFF7FDBF00BF70B5264B8E
:1019A00015469A6A12F0100F9A6A14BF1124102477
:1019B00012F0080F9A6A18BF1224920706460AD539
:1019C000586B9A6A140634D519B19A6A22F08002CB
:1019D0009A62132401E06FF01500174B9A6A12F017
:1019E000010F9A6A18BF142412F0200F9A6A18BFC8
:1019F0001524D20602D49B6A9B070AD50E4B5B685E
:101A0000190506D5314600F00DFA10B180F30988AA
:101A10000224094B9A6A920642BF5A6A22F4005283
:101A20005A629A6A42F0FF029A6200232B702046A3
:101A300070BD6FF01500CCE700ED00E0134B9A6A23
:101A400012F0007F9A6A14BF1E201D2012F0807FC2
:101A50009A6A18BF1F2012F4002F9A6A18BF21201B
:101A600012F4802F9A6A18BF222012F4003F9A6A5B
:101A700018BF232012F4803F9A6A6FEA02426FEA8D
:101A800012429A6218BF2420704700BF00ED00E0A8
:101A900010B5194B0246986A9C6A10F4805F14BF17
:101AA0001720162014F4006F9C6A18BF1820A40594
:101AB00009D5986B986A000404D51AB19A6A22F481
:101AC00000429A6219200C4B9A6A12F4806F9A6A4B
:101AD00018BF1A20D2050CD49B6A13F4005F18BFFC
:101AE0001C20054A936A43F47F43936200230B70E2
:101AF00010BD1B20F5E700BF00ED00E0F0B5484B3E
:101B00005B688BB00446C3F30803002585F3118896
:101B1000BFF36F8F02F07F40B0F17F4F11D102F021
:101B20000C0008280DD010074CBF0C4601250022E0
:101B3000033B8DF80720032B05D8DFE803F024636F
:101B400067602C46F3E700239DF80720CAB902AE70
:101B500004F1200720686168324603C20834BC42A1
:101B60001646F7D1099A002D54D0C2F3080121B9C5
:101B70006FEA52226FEA4222099202A9184603F044
:101B80002CFA0BB0F0BD264BDA6A9107DBD4DA6A87
:101B9000002AD8DBDA6A5200D5D55A69A16942F425
:101BA00080725A61BFF34F8FBFF36F8F5A6931F85C
:101BB000021C22F480725A61BFF34F8FBFF36F8F04
:101BC0004DF6027291420AD09A6AD2B24AB10DF130
:101BD000070201212046FFF7E1FE0346B4E7236830
:101BE000B2E79A6A12F47F4F05D00DF10701012088
:101BF000FFF74EFFF1E79B6AB3F5803FA3D3FFF7F2
:101C00001DFFEAE70DF107020021E3E70DF10701EF
:101C10000020EDE722F4FF7222F00102ACE700BFE2
:101C200000ED00E0044B5A6942F010025A615A6913
:101C300022F008025A61704700ED00E0EFF30880DF
:101C4000EFF3098101B57246FFF758FF01BD00BFF0
:101C5000002080F31488BFF36F8F0F4880F308884B
:101C600001F07EFF00200D490860BFF34F8F00F0A8
:101C70002BF8202080F3118809484FF404614018A4
:101C800080F30988EFF314800221084380F314885D
:101C9000BFF36F8F00F0B2F8C053002094ED00E066
:101CA000802300200749D1F890200023C2F30722A7
:101CB0001846934200DB7047C1F89830C1F8A00085
:101CC0000133F6E700ED00E008B572B6002383F3B8
:101CD0001388FFF7E7FF144B4FF0FF32C3F8802063
:101CE000C3F88420C3F88820C3F88C20C3F8902060
:101CF000C3F89420C3F89820C3F89C20C3F880212F
:101D0000C3F88421C3F88821C3F88C21C3F890213B
:101D1000C3F89421C3F89821C3F89C2162B6BFF39D
:101D20004F8FBFF36F8F08BD00E100E01EF0040F7E
:101D30000CBFEFF30880EFF30980816911F8021CF2
:101D40000229FFD001B5724603F04DF901BD00BF75
:101D500040B2002807DB044A4109012300F01F00BC
:101D6000834042F82130704700E100E040B2002893
:101D70000CDB4309064900F01F002033012282409A
:101D800041F82320BFF34F8FBFF36F8F704700BF21
:101D900000E100E0054B420900F01F0053F822204B
:101DA000012303FA00F01040704700BF00E100E09B
:101DB00040B20028A8BF00F1604001F10101B8BFA6
:101DC000064B4FEA4111ACBF00F5614000F00F0037
:101DD000C9B2B4BF195480F80013704714ED00E085
:101DE000044B054A23F07F039360BFF34F8FBFF38B
:101DF0006F8F70470000000000ED00E008B5FFF7AE
:101E0000EFFF074AD2F8883023F47003C2F8883015
:101E1000FFF798FDFFF7A2FD00F038F802F040FA56
:101E200000ED00E010F1160F074B08D0984208D3E0
:101E30004033834205D98B4203D90448704740336D
:101E4000F9E70020704700BFC02B0020002C0020C5
:101E500080B50C4607461546084E86F309880020D3
:101E600004498847204629461A46B8470248804711
:101E7000FEE700000750000015500000005400204D
:101E8000014B10221A61704700ED00E00448002366
:101E90002021C2180133272B82F80013F9D1704793
:101EA00000E100E008B5EFF30583064A103B02EBC2
:101EB000C30152F8330049688847BDE8084003F081
:101EC0009DB800BF38730000024B034A034802214B
:101ED00000F066B8000001200000002054750000EA
:101EE000084AC2F898000B6823F01F03034343F02D
:101EF0001003C2F89C308B6843F00103C2F8A03095
:101F0000704700BF00ED00E02DE9F043DFF860808E
:101F100085B00E461F4604464FF00009B14523DA4E
:101F20006068D8B13FB1411E08421BD11F2819D9A2
:101F30002368194216D12368019303F082F8A3683D
:101F400003430393D8F89050C5F30725D0B2013D61
:101F5000A84207D801A9FFF7C3FF421C09F10109F4
:101F60000C34DBE76FF01502104605B0BDE8F083D6
:101F700000ED00E0044B0522C3F89420BFF34F8F1F
:101F8000BFF36F8F704700BF00ED00E0BFF35F8FBE
:101F9000024B0022C3F89420704700BF00ED00E020
:101FA00010B5034C01232278FFF7AEFF207010BD5F
:101FB000682300202DE9F043534B544CD3F8903064
:101FC0002568C3F307239D4285B000F29A80FFF78E
:101FD000DDFF00200C2685421AD14D4C4D4F257057
:101FE0006846FFF757FCDFF82081DFF82C910646A2
:101FF0000025AE4213D1237843490020D1F8902028
:10200000C2F30722934276DBFFF7B4FF002042E0E1
:10201000616806FB0011FFF763FF0130DBE7009802
:1020200000EB05114FEA051CCB683B40B3F5000FF0
:1020300048D00AD8B3F5001F30D0B3F5800F36D0A2
:10204000B3F5801F10D00135D3E7B3F1807F42D0C4
:10205000B3F1007FF7D150F80C3088684A6802F07D
:10206000F0FF40F4802009E050F80C3088684A689E
:1020700002F0E7FF40F0885040F43020CDE9012322
:102080000390D8F890302078C3F30723013B98429F
:102090002AD96FF0150005B0BDE8F08350F80C3078
:1020A00088684A6802F0CDFF40EA0900E6E750F888
:1020B0000C3088684A6802F0C4FF40F0007040F4B9
:1020C0000030DBE750F80C3088684A6802F0B9FF4E
:1020D00040F08270D2E750F80C3088684A6802F00D
:1020E000B0FF40F08870C9E701A9FFF7F9FE237837
:1020F00001332370A7E7C1F89830C1F8A00001337D
:102100007CE74FF0FF30C6E700ED00E06C750000A3
:10211000682300200000F0FF0000081108B5024B02
:102120001B689847002008BD8C090020034B044A17
:102130001860937843F00203937070478C09002075
:102140005000002008B5054802F0BBFD002383F3D2
:102150001188BFF36F8F0423184602DFE97D00006A
:10216000044A0123C2F840354FF080420020C2F8F3
:102170007835704700E0014048B1054B054A1B68BF
:10218000B3FBF2F35843044B43F001031847704785
:10219000E000002040420F00E074000008B5044851
:1021A000044A3F23C0E9002301F016FE002008BDC9
:1021B00090090020FFFF0F00084B70B5C31A0D46B1
:1021C00007499B10044659430648402202F05AFF33
:1021D0002B4601462046BDE870401847AC09002058
:1021E000B76DDBB6B872000073B50C4C0C4A4023D7
:1021F000041B00930D460B460A49A4106143064692
:10220000094802F06AFF011E05DA30462B4602B08B
:10221000BDE87040184702B070BD00BFAC09002097
:1022200049510000B76DDBB6B87200000022F8B566
:10223000012105461046FFF7BBFD104801F0F4FDF3
:102240000446B8B901F010FE2F690D49384602F076
:1022500094FD031E09DB01263E642D69084905F142
:102260001C0002F08AFD031E02DA1C462046F8BD5F
:10227000EE64FBE76FF00404F8E700BF9D23000065
:102280008C75000010B5064C23782BB94FF4A5705F
:1022900004F04CFF01232370BDE8104001F09CBE08
:1022A0006923002010B5EFF31184202383F31288F3
:1022B000BFF36F8F074A136823F00201DB07116039
:1022C00002D4012004F0C4FB84F31188BFF36F8FA4
:1022D00010BD00BFFC09002030B4104B0C2202FBE3
:1022E000003301460020D3E90E529863EFF31180CA
:1022F000202484F31288BFF36F8F1C6C04F0C00499
:1023000044F002041C6480F31188BFF36F8F1DB189
:102310002B46034830BC184730BC7047AC0900203E
:10232000B872000010B4EFF31182202383F31288F7
:10233000BFF36F8F1748016841F002040460C807BB
:1023400007D482F31188BFF36F8F012010BC04F013
:1023500077BB4FF08041D1F80C04D1F80C14C907B9
:10236000EFD5EFF3118083F31288BFF36F8F0A4923
:102370000B6C03F0C00343F002030B6480F311887D
:10238000BFF36F8F82F31188BFF36F8F002010BCF3
:10239000FFF7A2BFFC090020AC09002010B1012802
:1023A00004D07047034B1B6C5B0701D1FFF794BF50
:1023B000704700BFAC0900202DE9F8433649BFF350
:1023C0005B8F0746012251E8003F41E800200028CA
:1023D000F9D1BFF35B8F33B9304931484B60CB60E3
:1023E0008A6002F0DDFC7B1E012B2DD8012F07D166
:1023F0004FF08043D3F81C3403F00303012B23D0A8
:1024000004F0D5FE054608BB264B1B78F3B14FF010
:1024100080430222C3F808230646DFF88C904FF071
:1024200080444FF00108D4F81824D4F81834D203AB
:1024300015D503F00303012B01D0012F0FD125B3D4
:1024400086F31188BFF36F8FBDE8F883EFF3118631
:10245000202383F31288BFF36F8F0125DDE7304619
:1024600002F0E0FDD4F81835002BDCD1D4F80421BB
:10247000002AD8D0C4F80431D4F80431C4F818853F
:10248000C9F88081C4F80880CDE74FF0804302226C
:10249000C3F80423D8E700BFA8090020980900204A
:1024A000C80900206C23002000E100E008B50748BF
:1024B00004F058FE38B10648FFF738FE0448FFF72D
:1024C000BDF8002008BD6FF01200FBE7F8720000B5
:1024D000D52400000A2838B5074D044604D1AB685E
:1024E0000D215B6828469847AB6803485B68E1B2FA
:1024F0009847204638BD00BFF8720000024B0B60C1
:1025000001231360704700BF000A00200048704795
:10251000B075000010B504F005FE034C206004F017
:10252000FDFD6060002010BD000A0020F8B50E46D9
:102530003046194617461D4602F07BFEB8B145EA03
:10254000060414F0030412D14DB12B19032BA6EB92
:10255000040006D8074AD2F80034DB07FBD5002078
:10256000F8BD3B1B043C196801F05CFEEDE76FF021
:102570001500F5E700E00140430970B507D10B4BAA
:10258000596821B101250C68094E854001B970BD1B
:102590008A682A4002D04B68304698471CB12368AD
:1025A00021461C46F2E72346FAE700BF080A00204E
:1025B000D872000038B54568A86890B104F09EFC58
:1025C000014670B9A86804F07DFC044658B902467B
:1025D0000649A86804F067FC224605210620FFF79B
:1025E000E7FB002038BD6FF00400FBE77925000011
:1025F0002DE9F0435B4E5C4F00EB810140F2FF158B
:10260000814202D10020BDE8F083046814F4804FB9
:10261000C4F3C32CC4F3080340F09080240E16F8D2
:102620000CC0AB4208BF4FF0FF33192C00F2898079
:10263000DFE804F00D13191C1F251C8787878736D8
:1026400063878787878787878787667B7E81C2F8CE
:102650000C355C1C5ED10430D2E7C2F814355C1C2A
:10266000F9D000245FE0C2F80835F2E7C2F810356F
:10267000F5E75C1CC2F80835EDD0002404E05C1CD2
:10268000C2F80C35E7D001245FEA531E5CD14FF04D
:1026900001084FF0A04E08FA03F9CEF80C950AE0B5
:1026A000C2F80835BCF1000FD9D15C1CD3D000248E
:1026B000A0464FF0060CD0F8009009F4004EBEF191
:1026C000000F1CBF4FF00008012403F01F0E5B0930
:1026D00042D14FEA8E0E0EF1A04EC9F34129DEF829
:1026E00000373B4043EA890343EA0C2343EA0803EB
:1026F00043EA4403CEF80037ADE7C2F80C35D1E722
:10270000C2F86035B3F1FF3F0468A4D0C4F30044BD
:10271000002CB8D05C091BD101244FF0A04E04FA64
:1027200003F8CEF80885A046C5E7C2F86435E9E7A6
:10273000C2F86835E6E7C2F86C35E3E76FF01500DC
:1027400061E76FF085005EE70023C3F80C35FFDE1C
:102750000023C3F80835FAE70EF5E07E002353F8AE
:102760002E30F4E7357E0000F0F8FCFF2DE9F04153
:10277000044647680D4604F01AFD4FF0200868B97A
:10278000244B1B7853B16426606802F052FFD0B925
:10279000012004F002F9013EF6D1F4E7EFF31186CF
:1027A000314688F31288BFF36F8F606802F041FFF3
:1027B000A8B986F31188BFF36F8FEFE786F311880E
:1027C000BFF36F8FDFE7EFF31186314688F312888E
:1027D000BFF36F8F606802F02CFF0028EED0BB695A
:1027E0001D706368BA691B680020C3F84425012284
:1027F000C3F84825C3F82001D3F82041C3F8580195
:10280000D3F858019A6081F31188BFF36F8FBDE848
:10281000F08100BF6C23002070B5012383400E4A75
:10282000BFF35B8FDC4352E8001F01EA040542E876
:102830000056002EF7D1BFF35B8F4FF480328240F9
:102840000648C0F80823BFF35F8FBFF36F8F0B42BA
:1028500014BF0120002070BD280A00200010014094
:1028600070B40E49D1E90034D01AC31844F1000401
:10287000C2F30E06C1E90034A6F58053B3F5C04F8C
:1028800009D2074B1B685A0CDB039C19054B42F11C
:102890000005C3E9004570BC01F060BD18010020CF
:1028A0002C0A00202001002011B3BFF35B8F01230D
:1028B000104A834052E800CF4CEA030C42E800C1C2
:1028C0000029F7D1BFF35B8F0B4A4FF4803383406D
:1028D000C2F80433094BBFF35B8F1B68BFF35B8FF8
:1028E000C340DB0742BF064B4FF40032C3F8002160
:1028F000704700BF280A002000100140200A002075
:1029000000E100E030B5144B1868410CC003BFF380
:102910005F8F124BD3F8043547F6FF7293420AD10A
:102920000F4AD2E90045844275EB010209D3C01871
:1029300041F1000130BD181841F10001B3F5006FFD
:10294000F8D2074BD3E90023904271EB0303F1D295
:1029500010F50040ECE700BF2C0A002000100140F9
:10296000200100202DE9F04F85B016461F469DF846
:1029700040A00446FFF750FF0190FFF7C3FFB042AD
:1029800071EB07035CD2301A44F2010367EB0101DB
:10299000984271F1000156D23D4B03EB0413D3E989
:1029A00002239F4208BF964265D03A494FF48038CF
:1029B00004F1500508FA04F8AD002046C1F8488338
:1029C000ADB202F0EFFEC6F30E0B05F1804504F543
:1029D000A87305F5883558464FF003090293C0F3F4
:1029E0000E03002B029A08BF0120C0F30E0341F82A
:1029F0002230C1F84483D1F804356FF0020CACEBFF
:102A0000030C6044C0F30E0043F6FD72904232D9CD
:102A1000286868B1D1F804350393A3EB0B00C0F329
:102A20000E00B0F5804F26D9204602F0BBFE039B76
:102A3000BAF1000F07D109EB030009F10109CEE754
:102A4000BAF1000F09D06FF0150520460199FFF784
:102A50002BFF284605B0BDE8F08F01230E4ABFF3D7
:102A60005B8FA34052E8000F184342E800010029A1
:102A7000F8D1BFF35B8F06490E98230101EB0412D6
:102A8000C8500F9B5360C2E902670025DDE700BF15
:102A9000F800002000100140200A002070B5294CE9
:102AA000294BC4F80833C4F84833284B284A00257A
:102AB0004FF0FF304FF0FF314FF48036C4F8085527
:102AC000C3E90201C4F80463C3E906014FF400330B
:102AD00086B00121C4F804331120C2F880312A469F
:102AE000FFF766F91120FFF733F91A4B0120032293
:102AF000A06020601A60184B009343F6FF72002319
:102B0000CDE90155FFF72EFF0220FFF755FC134AD0
:102B100013491368134823F00103136047F6FF734A
:102B2000C4F844630DF11702C4F8403503F072FF96
:102B3000002804DB9DF8170001F062F9284606B072
:102B400070BD00BF0010014001000F00F800002020
:102B500000E100E0280A002061280000240A00208B
:102B600008100140401101402DE9F743374CD4F8DB
:102B70000433D90319D540230022990810290CD118
:102B8000D4F84031002B41D00023C4F84031D4F8B0
:102B900040314FF480324423EFE70433502BECD123
:102BA0001AB12B4A136801331360D4F804339A0323
:102BB00029D5BFF35B8F274B53E8002F22F002018A
:102BC00043E800100028F7D1BFF35B8F930702D4CE
:102BD000D4F84431BBB10025C4F84451D4F8443191
:102BE000FFF790FEEFF31182202383F31288BFF3E7
:102BF0006F8F194BD3E90667B042B94108D282F30F
:102C00001188BFF36F8F03B0BDE8F0834423B4E7AE
:102C10004FF0FF384FF0FF39C3E90689D3E90410BC
:102C20001D614FF40033C4F84833C4F84451D4F85C
:102C3000443182F31188BFF36F8F0029E3D00090F5
:102C400032463B4601208847DDE700BF00100140C7
:102C50002C0A0020200A0020F800002030B5431C78
:102C600085B043F6FF7223D09042A8BF10460128DA
:102C70000446B8BF0124FFF745FE0F4BD3E900130C
:102C8000401AB0F5804F43F6FF7513D22218AA42BE
:102C900028BF2A4652184FF0000008490091CDE99C
:102CA000010043F100030120FFF75CFE05B030BDD9
:102CB0001446E0E72A46EDE71801002061280000ED
:102CC00010B5084C012363601120FFF74FF8064B45
:102CD000C4F80833C4F84833044B4FF40032C3F847
:102CE000802110BD0010014001000F0000E100E054
:102CF000F0B5816885B01039054621F0070402F06F
:102D000026F90B4B6E4603F1100C324618685968D1
:102D1000374603C7083363453E46F7D110232146A3
:102D2000284602F0E3F8003818BF012005B0F0BDD6
:102D30006677000030B50D46816887B0102302AA7F
:102D40001039044602F0BDF8002802DA012007B06D
:102D500030BD102202A9204602F044FD00283AD1DD
:102D60001E49102202A804F055FA00280CBF0123C6
:102D700002232B70204602F021FD012301460DF1B4
:102D80000702204602F09DF80028DFDB9DF807309F
:102D900003F00F021B096A702B7101220DF107016C
:102DA000204602F01FFD10B96B78042B03D90123D4
:102DB0006B7000232B71A268183A22F00702083AC0
:102DC000A91C204602F021FD0028BFD1E91C2046A5
:102DD00002F073FDBBE70323CBE700BF667700007B
:102DE000F0B5354F460085B00546694657F82600D0
:102DF00002F069FD044610B1FF2005B0F0BD0136B8
:102E000002A957F8260002F05EFD012837D12B48B1
:102E10002A46492102F03AF8294B02938DF80C40DA
:102E20009DF800609DF80870264C002220783146FD
:102E300002F0CAFC50B36078394602F0C5FC28B3F2
:102E4000A378042B03D09DF8031099421ED1E37898
:102E5000042B03D09DF80B10994217D12379042B32
:102E600010D16279022A1DD1174B18482A464921F0
:102E700002F00CF86079831E022BBED9BCE7002853
:102E8000CED0B9E79DF802109942EAD00132032A68
:102E900004F10604CAD10E482A46492101F0F6FF82
:102EA0000120AAE7032A05D00A4B0B49042A08BFD0
:102EB0000B46DAE7094BD8E7287600006E7E000063
:102EC00003010303037F0000507E0000B97E000071
:102ED000DD7E0000557E0000677E00004B7E000016
:102EE000044B1B68584043085B4240421843C017DC
:102EF000704700BF300A00208842F0B504D0094F67
:102F000004380025AA4200D1F0BD3E6850F8044FB5
:102F10005E4024EA060451F825601E4034430460F4
:102F20000135EFE7300A00202DE9F04F8DB01D4646
:102F3000189B179F1A9E0592B3F12A3F83468A4633
:102F400040F08D803946169802F04BFD012838BFBD
:102F50000120470900F01F047B01502B4FF00109AD
:102F600034BF4B4603230A9309FA03F30B930A9BDE
:102F7000059805FA03F306EB8303069303EB850339
:102F8000079302F00AFF4FEA8508089042460021A5
:102F9000304604F037F9079BC6F800900393089B6E
:102FA000199ACDE90153059B009331462B463046D3
:102FB00006EB080902F002FF51464246484604F07B
:102FC00013F90223494609930B9B099A934248D16E
:102FD00042463146584604F007F94FF00009CA4608
:102FE000079B0393089BCDE90153059B00935A4629
:102FF0002B465946584602F0E1FE002C47D1013FCE
:103000001F24169B53F82730E34003F0010343EAE3
:1030100049090A9B0AF1010A534503D0002CDFD16C
:10302000002FDDD1189BB3F12A3F32D106984246DA
:1030300009FB086104F0D8F8079B0393089B069AE4
:10304000CDE90153059B009359462B46584602F0A3
:10305000B5FE002CC1D1BFB90DB0BDE8F08F002482
:103060007AE7079B0393089B01EB080ACDE901531C
:10307000059B00934A462B46504602F09FFE099B53
:103080000133099351469FE7A146A246A8E7013CB8
:10309000B7E731464FF0000A0A4B18681B685840E2
:1030A00080EA090080EA0A00FFF71AFF2A46C343B4
:1030B0000698FFF721FF099B0AF1010A5345414495
:1030C000EAD1B9E7300A0020054B1B6801314340C3
:1030D0000132084022EA03020243501E00B2704748
:1030E000300A00202DE9F04F99B083460F4618466C
:1030F00000211646039303F0D2F8002800F08981DE
:10310000784B14930024012515AB03991393304693
:10311000CDE90B45CDE90D45CDE90F45CDE911458B
:1031200003F046F8A04228DABBF1000F05D1E7B959
:103130000024204619B0BDE8F08F2146584602F021
:10314000BFFF04460028F2D00BA802F006FF0DA82E
:1031500002F003FF0FA802F000FF11A802F0FDFE2D
:103160000C2115A800F014FBE3E73146384602F0C5
:1031700072FF04460028E7D1DAE731460BA802F0D7
:103180006AFF04460028DFD103990DA802F063FF0F
:1031900004460028D8D1F188ADF8385002310FA884
:1031A000ADF8305002F0E7FE04460028CCD10146CD
:1031B0000FA802F085FF04460028C5D1F18811A8A8
:1031C000023102F0D8FE04460028BDD10DA802F05D
:1031D000A3FF00F01F001F2873D0C0F11F03194682
:1031E0000BA8019302F0BEFF04460028ACD1019960
:1031F0000DA802F0B7FF04460028A5D1BDF8325053
:10320000BDF83A80A5EB080A4FEA4A1949460DA8CD
:1032100002F0A8FF0446002896D14FEA8A0A0DA9B9
:103220000BA802F0F4FF00284DDA49460DA802F081
:10323000B6FF0446002887D108F1FF3305939B00B1
:1032400005F1FF3A069305F1804508F18043023B02
:10325000013D9B00A5EB08050893AB000293059B7D
:103260009A4541D8BBF1000F0DD00FA9584602F086
:10327000F2FE002840F0C980039AB388928813FBBD
:1032800002F3ABF80430002F3FF45EAF01990BA8B6
:1032900002F085FF002840F0B880B388ADF83030E8
:1032A0000BA9384602F0D7FE0146002840F0AF8057
:1032B000384602F0F4FF00287FF446AF0123BB80BC
:1032C00042E701949AE70F9A52F80A300BA90133AA
:1032D00042F80A3008460DAA03F0C7F80446002851
:1032E0009DD031E7010003000D9B069A049313441F
:1032F000DDF82C900793049B59F82A109A580F9DDB
:103300004FEA8A08A8F104030993029B91421D44E5
:1033100076D2A8F10400002359F80000FCF7DEFE85
:10332000002914BF4FF0FF330346BAF1010F2B60A1
:1033300016BF09EB0803002353F8083C1593A8F1C6
:10334000040359F80330169359F8083017932B6883
:10335000DDF8108001332B60089B98442B68013BFB
:103360002B60002111A802F0ABFE00284DD1059B77
:10337000002B48D0D8F80020119B1A60079A1268D9
:103380005A6011A92A68084603F073F800283CD156
:1033900013A911A802F03BFF0028DFDC2A680DA961
:1033A00011A803F066F880BB029B4FEAC3084146B0
:1033B00011A802F0D7FE40BB0BA9084611AA03F0E2
:1033C00054F8014618BB0BA802F069FF002812DA76
:1033D0000DA911A802F03FFEB8B9414611A802F0AC
:1033E000C1FE90B90BA911AA084603F03BF860B9D9
:1033F0002B68013B2B60029B0AF1FF3A043B2DE74F
:103400004FF0FF3391E7059AB6E704469CE60C4679
:103410009AE66FF00B048CE6F0B5114C059F24681A
:103420004440002B14BF9C468C46E443002303F128
:10343000040E774502D2BB4209D3F0BDD5585CF8E3
:103440000360054026403543CD507346EFE7D55C19
:103450001CF80360054026403543CD540133EAE7AC
:10346000300A00200928024818BF0020704700BF1A
:10347000157F000001680E4A9142034615D1C169CB
:10348000A2F11022A2F1EF1291420ED18268012A1C
:103490000BD8C26812B101698A4206D0586928B1B6
:1034A0009B691B1A5842584170470120704700BF62
:1034B00055AA00FF70B50D4B9E68A6B13046FFF7C8
:1034C000D9FF044678B9F3686BB935690DB9204660
:1034D00070BD2846FFF7CEFF28B9EB68B34202D192
:1034E0002E462D69F2E70124F1E700BF340A0020DF
:1034F0002DE9F8433F4F3C68D4B1BC68C4B1002803
:103500004AD0002948D001FB00F5B5FBF0F0884215
:1035100042D1281D40D8A9070DD025F00306043656
:10352000FC6803E06368B34238D2A469002CF9D187
:103530002046BDE8F8832E46F2E7FB6041E006F145
:1035400020016318203A5A600022C3E902242A4865
:1035500022691A6160502949D96102B1D360626958
:103560005A61A1699961AAB193619A6902B15361E3
:103570004FF00109C4E9016923610023C4E905335F
:103580003B69DB072ED5FFF795FF58B31C4B484628
:103590001B6826E0FB60E8E70024C9E7A3681BB1CD
:1035A000174B01201B6898476268921B232A04F17D
:1035B0002008C4D80123A360D4E90523002ABCD085
:1035C0009361A3690BB162695A610023C4E90533B1
:1035D0003B69DA0706D5FFF76DFF18B1084B1B688A
:1035E000012098472A4600214046444603F00AFE3F
:1035F0009EE700BF340A002055AA00FF669911EE2D
:10360000D400002070B50546002800F08880444EA4
:103610003368002B00F08380B268002A7FD0834299
:1036200003D872681344984203D33E4B01201B68B1
:103630009847A5F120042046FFF71CFF18B1394B2D
:1036400001201B68984755F8183C012B03D0354BD7
:1036500001201B689847002345F8183C55F8143C96
:103660003BB39A682ABB55F81C2C02F120015A681A
:103670000A445A6055E905321A6155F8145C2B6901
:1036800003B1DD6020220021204603F0BBFD286944
:1036900010B18368002B2ED033699B073FD5FFF70D
:1036A00009FF00283BD01F4BBDE870401B6801207C
:1036B000184755F8100C00282AD0836843BB42688D
:1036C000636813442033636003692361D4E90523ED
:1036D0009AB9CBB9436963618269A261B3B19C6154
:1036E000A36903B15C61236903B1DC60202200217E
:1036F00003F088FDD0E72C46E1E79361A369002B36
:10370000E8D062695A61E5E7F360F7E7F460E7E75C
:10371000F36845F8083C03B15C61F460BCE770BD38
:10372000340A0020D400002038B514220C46054687
:103730000021134803F066FD1249134800F040F8D9
:10374000232C1CD915F003031FBF043CE418C3F15C
:103750000403ED1822460021284603F053FD084BD0
:103760000A499D60C3E90054203C6C609A6811606E
:103770009A68DA60A1F11021A1F1EF11D16138BD91
:10378000340A002005360000F134000055AA00FF7D
:1037900010B50A46044619B1024B00211B68984730
:1037A00010BD00BFD0000020014B1B68184700BFB0
:1037B000DC000020014B1B68184700BFD800002028
:1037C000024B1860024B002019607047DC0000209B
:1037D000D8000020F8B500F10806476804463046D6
:1037E0000D4602F09DFC87424BD16368B3F5806FB4
:1037F00047D80021304602F052FD002841DD00216B
:10380000304602F079FCE0B345B9294604F11000D6
:1038100002F045FD002834DD0020F8BD04F120054C
:103820000021284602F03BFD00282ADD0021284621
:1038300002F062FC28B304F128050021284602F0BA
:103840002EFD00281DDD0021284602F055FCC0B1E8
:10385000002104F1100002F022FD002811DD0021FA
:1038600004F1300002F01BFD00280ADD002104F104
:10387000380002F014FD002803DD002104F14000AF
:10388000C6E70148C9E700BF80BFFFFF012970B547
:1038900005460E46144601D9074870BD03D0C5E958
:1038A0001C640020F9E7002AF9D01046FFF7DAFD82
:1038B0000028F4D1F0E700BF00BFFFFF70B5002182
:1038C0000446FFF787FF054610B10E4D284670BD30
:1038D00004F10806304602F01FFC7F28F5D91034A9
:1038E0002946204602F008FC0028EED0204602F0CF
:1038F00013FC0128E9D93146204602F088FC002853
:10390000E4DBE2E700BEFFFFF0B50C4685B0002126
:1039100005461646FFF75EFF002839D102A802F0DF
:1039200017FB21466A6802A802F000FC044618B1A1
:1039300002A802F012FB0CE005F10804214602A8DF
:1039400002F065FC002807DB02A802F006FB6FF01E
:103950000304A4F5854418E005F1480302A96F6843
:10396000009305F110022346084602F0D2FE0446F9
:103970000028DDD13A46314602A802F0EDFB0446AC
:1039800002A802F0EAFA002CE3D1204605B0F0BD0F
:10399000004CFAE780BFFFFF03460846C1B9C3E900
:1039A00010110D4A0D49DFF838C0C3E912120D4A53
:1039B0000D49C3E914C20D4AC3E916120C4A1A662E
:1039C00002F17452A2F52302A2F692425A6670479F
:1039D0006FF07300704700BF85AE67BB67E6096A8A
:1039E00072F36E3C3AF54FA57F520E518C68059BE1
:1039F000ABD9831F2DE9F04FCFB00446039100F1FE
:103A0000480346AD00F16806186859682A4603C2A3
:103A10000833B3421546F7D1DDE94883DDE94B961B
:103A2000DDE946150193DDF834B13E4B4A98029327
:103A300004AA4FF0000CBCF10F0F5BD8039B53F8A6
:103A40002C301BBA4FEAF02E86EA0907DDF808A0F1
:103A500093608EEAB01E07408EEA706E774077441E
:103A60005AF804EBCDF808A077443B4445EA010E30
:103A70004FEA713787EAB1070EEA080E05EA010A34
:103A80004EEA0A0E87EAB15777440CF1010CDDF8D3
:103A900004E0CDF804805B44BCF1400F9E4402F189
:103AA00004023B44B3461ED1CDE94C96CDE94AE031
:103AB000CDE94858CDE94631CDE9043745A904F1AF
:103AC0004403643453F8042F51F8040FA342024412
:103AD0001A60F7D104A84FF49471FFF759FE002043
:103AE0004FB0BDE8F08FA8464E460D4681461946B8
:103AF0007046A0E7136852F834AC52F8387C4FEAAD
:103B0000F34E8EEA734E8EEA932E52F8143C3B44E9
:103B10004FEABA4787EAFA17734487EADA073B4461
:103B200090E700BF307600004FF0704393F8E02F2D
:103B3000062A09D1D3F8E83FC3F30313033B042B50
:103B400002D8024AD05C704700207047277F0000EF
:103B5000024AD2F80034002BFBD0704700E001404D
:103B600010B502F009FF40B14FF080538E4AD3F8F0
:103B70002433C3F30423C2F84035FFF7D5FF10B157
:103B80008A4B8B4A5A6702F0F7FE48B14FF08053D8
:103B90004FF08042D3F84432C3F34233C2F83C358D
:103BA000FFF7C2FF30B1834AD2F8FC3023F08073B4
:103BB000C2F8FC3002F0E0FE40B14FF0804300223A
:103BC000C3F80C21C3F81021C3F83825FFF7ACFF68
:103BD00020B14FF080430322C3F8A025FFF7A4FFD4
:103BE00060B1754B0522C3F810260122C3F8882660
:103BF0000022C3F818263F22C3F814264FF0805342
:103C0000D3F83021511C09BF4FF07043D3F8343141
:103C100093F8E02FD3F8E83F08BFC3F30313062A55
:103C20004DD1033B042B03D8644AD35C002B46D010
:103C30004FF08052624BD2F80414C3F82015D2F82A
:103C40000814C3F82415D2F80C14C3F82815D2F8B8
:103C50001014C3F82C15D2F81414C3F83015D2F888
:103C60001814C3F83415D2F81C14C3F84015D2F850
:103C70002014C3F84415D2F82414C3F84815D2F818
:103C80002814C3F84C15D2F82C14C3F85015D2F8E8
:103C90003014C3F85415D2F83414C3F86015D2F8B0
:103CA0003814C3F86415D2F83C14C3F86815D2F878
:103CB0004014C3F86C15D2F84424C3F8702502F000
:103CC0005BFE48B14FF080534FF08042D3F858323A
:103CD00003F04F03C2F8E43E02F04EFE48B14FF04D
:103CE0008043D3F80024D20744BF6FF00102C3F829
:103CF00000244FF08053D3F83021062A26D1D3F880
:103D00003431033B042B02D82E4AD35C63B12E4AD4
:103D1000D2F83C3743F48063C2F83C374FF080530D
:103D2000D3F83031062B11D14FF08053D3F8343112
:103D3000033B042B02D8254AD35C3BB14FF0102340
:103D4000D3F808224FF08043C3F858254FF01023D2
:103D5000D3F80022002A03DBD3F80432002B22DA46
:103D60001B4901234FF01020C1F804351524FFF73B
:103D7000EFFEC0F80042FFF7EBFEC0F80442FFF789
:103D8000E7FE0023C1F80435FFF7E2FEBFF34F8FD3
:103D90000849104BCA6802F4E0621343CB60BFF3DA
:103DA0004F8F00BFFDE710BD0030014000C007404D
:103DB0000DF0ADBA00ED00E000500040227F0000A1
:103DC00000C000401D7F000000100040187F000070
:103DD00000E001400400FA05014B1860704700BF85
:103DE000480A002010B5054B1868144602F0D7FDAC
:103DF0000028A4BF2070002010BD00BF480A00208A
:103E0000024A01238340C2F80435704700F00140A4
:103E1000014B00201B6818474C0A0020014B1B680F
:103E2000184700BF4C0A002010B50C4C237993B9F9
:103E3000012323710A4B2060002818BF184600F0A8
:103E400069F850B923680748002BBDE8104008BF47
:103E5000184600F0AFB86FF0770010BD4C0A002094
:103E6000113E00001D3E000008B5064B1B683BB12B
:103E70000020FDF78FFF18B9BDE80840FDF768BFC7
:103E800008BD00BF4C0A00204FF08053D3F830210A
:103E9000511C09BF4FF07043D3F8343193F8E02F31
:103EA000D3F8E83F08BFC3F30313062A05D1033B49
:103EB000042B04D8034AD05C7047002070470120CF
:103EC000704700BF2C7F000038B54FF080440123BD
:103ED000C4F8083363600023C4F80031D4F800311B
:103EE00042F21075D4F80C24D4F80C34D20307D560
:103EF000DB0705D5012002F050FD013DF2D138BDB0
:103F0000FFF7C2FF0028FAD0014B00225A71F6E7F2
:103F1000540A002038B5084C25794DB9012320609A
:103F20002371FFF7B1FF08B9002038BD6571FBE7C9
:103F30006FF07700F9E700BF540A00204FF080438C
:103F40000022C3F80021D3F80021094901221A6098
:103F5000096811B1C3F804237047D3F80021002A7F
:103F6000FBD00022C3F80021D3F80031704700BF16
:103F7000540A002010B54FF08043D3F80423D20731
:103F800015D5D3F8002192B10022C3F800210124F5
:103F9000D3F80021C3F80843FFF776FF044B10B1B4
:103FA0005A7922B95C71BDE810401B68184710BDF2
:103FB000540A0020074A137943B901211060117196
:103FC0004FF080421846C2F8183570476FF07700FE
:103FD000704700BF5C0A002010B54FF080432C4CA6
:103FE000D3F81814D3F8182411F4803F37D002F016
:103FF0000303012B03D00BB102F03BFD00234FF074
:104000008042C2F818350023C2F80431D2F80431D6
:104010004FF08053D3F83021511C09BF4FF070434B
:10402000D3F8343193F8E02FD3F8E83F08BFC3F357
:104030000313062A08D1033B042B02D8154AD35C8C
:1040400013B18A2002F0A9FC4FF0804301229A604C
:10405000226872B9D3F80421002AFBD011E0D3F80A
:104060001424D207CAD5D3F81C249007C4D42268DC
:104070001AB10222C3F8042310BDD3F80421002A88
:10408000FBD00022C3F80421D3F80431F4E700BFC9
:104090005C0A0020317F0000F8B54FF08043194FD3
:1040A000D3F80443012504F01A04002604B9F8BD2E
:1040B000B4FA84F0C0F11F00830003F580739BB253
:1040C00003F1804305FA00F2196824EA020400298A
:1040D000ECD01E601B684FF080430128C3F8082312
:1040E0000CD1D3F81824D3F81824920706D1022251
:1040F000C3F81805C3F804239860D7E73B68C0B23B
:104100009847D3E75C0A00204FF08053D3F8302162
:10411000511C09BF4FF07043D3F8343193F8E02FAE
:10412000D3F8E83F08BFC3F30313062A05D1033BC6
:10413000042B04D8034AD05C70470020704701204C
:10414000704700BF367F000073B5CEB200EB460665
:104150000446B38ADB070D4625D502F085FDB38AF8
:104160009A0608D55A0B236803EB82030022C3F892
:104170001025C3F8102520462946002402F013FD1F
:10418000B48201A8019502F08FFC019B00EB830033
:10419000064BD0F80027134043F00203C0F8003765
:1041A000204602B070BD6FF01500FAE7F0F8FCFF92
:1041B000014802F012BC00BFE400002010B5044822
:1041C0000C4602F0ECFB0028A4BF2070002010BDBC
:1041D000E4000020044AD2F80034DB07FBD501607C
:1041E000BFF35F8F704700BF00E001404FF0805386
:1041F0001A69B0FBF2F302FB13036BB9084B0222FE
:10420000C3F80425C3F80805D3F80024D207FBD56A
:104210000020C3F8040570476FF00C00704700BF22
:1042200000E0014010B5054C0123C4F80435FFF748
:10423000D1FF0023C4F8043510BD00BF00E00140E9
:1042400038B50A4B53F82040013053F82050A542AE
:1042500000D838BD606830B1037FDB0701D402F0BD
:1042600069FF0834F3E723689847FAE730770000DE
:1042700008B5094B012203201A70FFF7E1FFFDF793
:104280004FFB0420FFF7DCFFFCF792F8034A137B97
:1042900023F00103137308BD6C23002028010020C4
:1042A00008B50020FFF7CCFF174B83F30888174CA5
:1042B000636943F4007363610025E02384F82230CE
:1042C000E57725766576A57684F82050636A43F411
:1042D000E023636284F82350FDF7A4FCFDF7D0FDD2
:1042E0004FF0FF33A362E362FDF764FEFDF7ECFDE0
:1042F0000120FFF7A5FF0220FFF7A2FF04482B468D
:104300002A462946FDF7A4FDC02B002000ED00E061
:1043100071420000024B1868984208BF00207047A5
:10432000E800002030B570B10B4B5B6898420AD0B2
:10433000036843B1D3E90421D0E90445121941EBE4
:104340000501C3E90421D0E9003213605A6000235B
:10435000C0E9003330BD00BFE80000202DE9F04780
:10436000EFF31185202383F31288BFF36F8FDFF8FB
:10437000A090DFF8A080C9F80000FFF7CBFF00266F
:104380000027D9F80030D8E900ECD91750B1D0E9AE
:104390000442A34271EB020A1ADAE41A62EB010248
:1043A000C0E9044213EB0E034FF000044CEB010193
:1043B0002046C8E90031C9F8004002F0FEFE21465F
:1043C000FEF74CFC85F31188BFF36F8FBDE8F087D3
:1043D00014EB0E024CEBE473C0E90467C8E9002358
:1043E000FFF7A0FF85F31188BFF36F8F83689847AD
:1043F000EFF31185202383F31288BFF36F8FD9F871
:1044000000301B1BC9F80030FFF784FFB9E700BF7D
:10441000640A0020A80100202DE9F04F8378D0F82D
:10442000048015469A0785B0074640F1B5800026FE
:1044300091F800B0BBF1000F00F0B080BBF1250F88
:1044400005D001F1010A01363946584660E091F87D
:1044500001B0BBF1250F01F1020AF4D000240121C3
:104460001F2C26D8ABF12002102A10D9ABF1300254
:10447000092A37D81AF801BBBBF1000FF0D1394631
:104480002520C0470028C0F283800236DCE7854B38
:1044900001FA02F01842EDD1032A64D0ABF13002E8
:1044A000092AE7D9BBF12A0F11D1043544F02004C1
:1044B000E0E77F2C16D8ABF13002092ADAD9BBF13C
:1044C0002A0F0CD1630605F10405D3D4EEE7BBF146
:1044D0002E0F0AD1600661D444F04004CAE7BBF154
:1044E0002E0FF7D0BBF16C0F2CD0BBF16C0F13D893
:1044F000BBF1680F2DD0BBF16A0F31D0BBF14C0F6F
:104500002ED0BBF1630F0DD115F8040B01363946DF
:10451000C047002836DA3BE0BBF1740FAAD0BBF1EC
:104520007A0FA7D0ABF16402112A00F29080DFE885
:1045300002F0398E8E8E8E398E8E8E8E8E98888E6B
:104540008E1C8E72220648BF44F4007444F080042E
:1045500090E7E30548BF44F4007444F4807489E7AD
:1045600044F4207486E7102484E72C684E4B002C1A
:1045700008BF1C46A1464B4619F8010B20B9341B55
:104580001E190435514653E73946C0470028F2DA70
:10459000BB7843F00403BB704FF0FF36304605B0E4
:1045A000BDE8F08F20062DD5A10545BF073525F0C4
:1045B000070555F8040B55F8080B0028B8BF44F45C
:1045C000806424F01004B8BF4042A4B20DF1040985
:1045D0000A22494602F02EFEE206A0EB09094DD55B
:1045E00039463020C0470028D2DBBBF1000F57D03E
:1045F000023639465846C0470028C9DB4C460DF103
:10460000040B49E0E20555F8040BD6D5A3054CBFD1
:1046100040B200B2D1E724F01004A4B20A2220066E
:1046200023D5A10545BF073525F0070555F8040B2F
:1046300055F8080B10B924F01004A4B20DF10409C8
:10464000C7E744F0100410224FF0780BE7E74BF077
:104650002002782A7FF413AFCBF1780242F01002E7
:10466000DDE708224FF0000BD9E7E30555F8040B0E
:10467000E0D5A1054CBFC0B280B2DBE76305BDD574
:10468000013639462D20B6E7013C39461BF80400B7
:10469000C0470028FFF67CAF002CF5D14E4471E7EF
:1046A0000136ABE7812801003B7F00007047002006
:1046B000704730B5002985B00446154611DB836884
:1046C0008B420ED96368C068194401AA00F078FDD6
:1046D00028B96268019B9B1A2B60029B6B6005B036
:1046E00030BD6FF02100FAE72DE9F0479AB0DDE91F
:1046F000245768460C46229E9246994602F0A3F83B
:1047000000216846FFF748F935B1002F04DD3A462D
:104710002946684602F0A0F863892289D4F80C8003
:10472000134498440025A84508D82399684602F008
:10473000D2F8684602F08BF800240FE0A8EB0507DA
:10474000B74228BF37463B464A462946504600F006
:10475000B8FB044630B1684602F079F820461AB03A
:10476000BDE8F0873A464946684602F075F83D4490
:10477000D9E72DE9F7430E4617469946044628B96E
:104780004FF0FF38404603B0BDE8F0830029F7D072
:10479000002AF5D0CB680D891D4404230DEB0302DC
:1047A0002946384600F08DFB80460028E8D1BDF848
:1047B0000410738946F60812914225D1BDF80610FF
:1047C0009942DDD104230DEB03022944384600F061
:1047D00078FB0028D4D1BDF8042046F607139A428E
:1047E000CED1C4E900679DF82830A4F80890A372E0
:1047F0007389BDF806202B44E360738913442B446E
:10480000043563612561BDE7002BE4D0B8E72DE9ED
:10481000F3410E4617461D46044620B94FF0FF30BF
:1048200002B0BDE8F0810368002BF7D04368002B8D
:10483000F4D04FF6FF78D4E904239A4216D22368C5
:104840005B8923B1E368934204BF043323610423EB
:10485000216960680DEB030200F033FB0028DDD115
:10486000A37A2BB1D4E903329A4201D30120D7E7CE
:104870002389BDF80610434501F1040203D0BDF8B9
:1048800004C09C450BD115B1BDF804302B802369C1
:10489000043333603980236913442361C0E72369FB
:1048A00013442361C7E748B103683BB143682BB1A8
:1048B000C068884294BF0020012070474FF0FF304D
:1048C000704702F0A7BC10B5044600F039FB00F0B9
:1048D00090F8A368984201D900F0C3FB181A10BDE4
:1048E00070B50D46044600F069FF2A46A0F10801A4
:1048F00004232046BDE8704000F0E3BA13B5044637
:10490000019100F05BFF0423A0F108010DEB03020D
:10491000204600F096FF02B010BD00F0ACB90129AE
:104920002DE9F341174601D900F09BFB2C2303FB33
:104930000104D4F82080B8F1000FF5D0E36826898F
:104940001E4404230DEB03023146404600F0B9FA41
:10495000054620B10125284602B0BDE8F081BDF82A
:104960000420648946F608139A421AD1BDF806302D
:104970009C4201D00325EEE704230DEB0302A119AD
:10498000404600F09EFA0028E4D1BDF8042046F627
:1049900007139A42EED1BDF8061021443144396024
:1049A000D9E7002CF1D0E5E713B5372201290346FA
:1049B000019208460AD15A6A03F1280401A900F0BD
:1049C000EFFA08B9019B236002B010BD022903D1A0
:1049D0001A6D03F15404F1E70120F5E710B528B191
:1049E000BDE810406022002102F00CBCFCF7B0F8DA
:1049F000F6E7A52358433030704773B50C4605469B
:104A0000164600F09DFAA04203D9284600F098FA15
:104A10000446A968A523303903FB14116A462846C9
:104A2000FFF747FE0028A4BF009B336002B070BDB3
:104A300010B412B110BCFBF79DBF104610BC7047FC
:104A4000002382681946FFF7F3BF08B52C2303FB48
:104A50000101086A08B900F004FBBDE8084004221F
:104A600000F0C0BE70B513460E4615460021024642
:104A70000446FCF77BFA50B92B4604F12C020121C5
:104A80002046FCF773FA10B1002E08BF002070BD5D
:104A900000207047002110B504460846FBF712FDC0
:104AA00004F12001C0B2FCF7FBFE40B90121FBF785
:104AB00009FD04F14C01C0B2FCF7F2FE08B100F0B0
:104AC000D0FA10BD10B50446C06C08B100F0F8F97A
:104AD000206A18B1BDE8104000F0F2B910BD012302
:104AE000036003F1012343600023C0E902337047F0
:104AF0004379012B07D10368012B04D10079431EB0
:104B000058425841704700207047F7B5056A07467C
:104B100028460E46FFF7D7FEF96D0446304600F0F2
:104B200096F80444284600F00BFA0746284600F0A1
:104B30000EFA072201460DF1010002F063FB337902
:104B40008DF800306A463B462146284600F0CEF9F3
:104B5000003818BF012003B0F0BD13B50C4601AA00
:104B6000C16D2046FFF749FF002809DB0199A268C3
:104B70000123521A2046FFF75BFFC00F02B010BDA1
:104B80000120FBE737B50C46C06C69461546FEF7B9
:104B9000D1F8024608B100F064FAE979012904D09D
:104BA000204600F0A4FE0028F5D19DF80330012B2B
:104BB00004D1204600F07AFE0028ECD1A9682046F6
:104BC000FFF79CFE0028E6D12046FEF791F800286A
:104BD000E1D103B030BD73B50C460646FCF7C2FA0E
:104BE000E06028B3022801D1356A0DB900F039FA26
:104BF000224631462846FCF711FAD0B9284600F083
:104C0000DDFD012301460DF10702284600F059F9A8
:104C100088B901220DF10701284600F0E3FD10B12B
:104C200001238DF807309DF8073003F00F03E3717F
:104C3000002002B070BD0120FBE7436A00205A68E3
:104C4000034613448B4200F10100FAD3704710B5BC
:104C500043790279012B1ABF37234B43002302F11A
:104C6000FF3201FB0233026814BF4C000C46013ACC
:104C700004FB023010BD10B50446C06DFFF7B9FE4D
:104C8000636A5B685A1E024459421140A26A013AA3
:104C90005A43501A626D53435B1A984228BF184614
:104CA00010BD10B5036A0446D8688368DB6898476E
:104CB000E36CD8688368DB689847012010BD00204A
:104CC00070470FB407B504A951F8040B0191FCF724
:104CD000BBFC03B05DF804EB04B07047038B13F02A
:104CE000070305D10368002B0CBF00200320704789
:104CF000022B05D1408BB0FA80F04009800070474C
:104D0000012B05D10368002B0CBF00200520704744
:104D10000020704710B50C4600B111B96FF01500B6
:104D200010BD081D00F093F80028F9D1A368032BEB
:104D3000F6D9F3E72DE9F0410D4607461946281D3F
:104D400090461E4600F094F8044638B13346424679
:104D500029463846A446BDE8F0416047BDE8F081E9
:104D600010B4EFF31182202484F31288BFF36F8F05
:104D7000416110BC0121FCF77FBC38B50C460546EB
:104D800058B151B10B6843B14B6833B11C220021BB
:104D900002F038FA2C61002038BD6FF01500FBE7F7
:104DA00070B505460E46FFF7B5FF041E14DBEFF3A2
:104DB0001182202383F31288BFF36F8F6B8B2C8BB0
:104DC0004FF6FF718B4204F0070407D182F311887C
:104DD000BFF36F8F6FF00A04204670BD022C0CD118
:104DE00001336B8382F31188BFF36F8F0023224658
:104DF00031462846FFF79EFFEEE7062C14D8DFE881
:104E000004F004131313041A0400002333606B68C6
:104E10003BB9C5E90066ACB902212846FCF72CFC79
:104E2000DAE71E606E60F6E782F31188BFF36F8FDA
:104E30006FF00404D0E782F31188BFF36F8F6FF037
:104E40008504C9E782F31188BFF36F8FC4E7034677
:104E500058B1426802F00302012A03D0032A04D1A8
:104E6000026812B10020986070476FF0150070471B
:104E70004268816002F00302032A4FF000020346F9
:104E80000CBF006810465A60704770470FB407B5F2
:104E900004A951F8040B0191FCF7D6FB03B05DF8AF
:104EA00004EB04B07047002908DB8068884205D90C
:104EB000401A904234BF0020012070470020704704
:104EC000704770B516461A4605460C46FFF7EBFFCD
:104ED00048B16968E8682144826814683246A4468B
:104EE000BDE8704060476FF0150070BD70B51646A4
:104EF0001A4605460C46FFF7D6FF48B16968E868D0
:104F00002144826854683246A446BDE87040604738
:104F10006FF0150070BD10B50B460446FFF7C3FFD8
:104F200040B16168E068194483689B682BB1BDE8B3
:104F3000104018476FF0150010BD6FF05700FBE7E9
:104F400008B5C0688368DB689847006808BD08B585
:104F5000C0688368DB689847407908BD70B54C68C5
:104F60000368A34201D2012070BD8A6822449342A3
:104F700001D30020F8E7D1E903254E69B54203D3F8
:104F80006FF00B038B61F4E71B1B42F8353043686D
:104F9000086902EBC00253600B6901330B61E2E761
:104FA00037B50C46C0B201A91546FCF779FC0028BC
:104FB0000CDB019850B121462A46FCF797FC0446C9
:104FC0000198FFF77DFF204603B030BD6FF0150458
:104FD000F9E702F017B902F007B9012801D1EFF3A0
:104FE000058302F0D5B801460068FFF7F6BF08B5A3
:104FF000FCF7D0FCBDE8084000F000B87047002185
:105000000120FFF7EABF61B662B680F31188BFF3F3
:105010006F8F7047EFF31180202383F31288BFF363
:105020006F8F704772B6002383F31188BFF36F8FC1
:10503000BFF34F8F20BF80F31188BFF36F8F62B62D
:105040007047202809D9B0F1004F08D80138B0FACC
:1050500080F0C0F11F0040007047082070473E20DC
:10506000704708B5FDF76EF808B5FDF757F8002052
:1050700008BD0369C9B20C2201FB0233186C00F0B1
:105080000700704770B5C9B20369EFF3118520249A
:1050900084F31288BFF36F8F0C2606FB0134246C57
:1050A00014F0C00408D0A24206D085F31188BFF3E3
:1050B0006F8F4FF0FF3070BD71430B4401221A64B3
:1050C00085F31188BFF36F8F43680B445B68984783
:1050D0000020F0E78022FFF7D5BFF8B5069F0469EE
:1050E000C9B2EFF31186202585F31288BFF36F8FC5
:1050F0000C2569430C44256C05F0070CBCF1010F2D
:105100000BD1276486F31188BFF36F8FC4E90E2398
:1051100043685B5898470020F8BD05F0C005AF42D2
:1051200086F31188BFF36F8F0CBF6FF077004FF0DD
:10513000FF30F1E713B580240094FFF7CEFF02B0F3
:1051400010BD6FF08500704710B40069CBB21C240D
:1051500003FB0400002110BC104701F0A3BCF7B50D
:105160001C461646002382682360A36053690D46DF
:1051700001AA69469847019B5A1E01921BB96FF01C
:10518000150003B0F0BD0098A26847682168676009
:1051900085B9B31AD0F800C0634528BF63461A44E6
:1051A00003FB07112160A26002689A4206D808300A
:1051B0000090E0E76B1AB3FBF7F3EBE70020E0E7C2
:1051C00013460022FFF7CBBF2DE9F047836886B076
:1051D0005B698846914601A902AA98470024A24625
:1051E0002546029BAB4202D806B0BDE8F087019F7E
:1051F00007EBC50700267B6804933A68B2420AEBC6
:10520000060302D801359A46EBE703940593494615
:1052100003A8C0470028E7D0049B01361C44ECE7F4
:1052200010B50C4601F074FF0023C4E900031846D2
:1052300010BD38B505460C4601F06AFF002D07DBAE
:10524000A84205D9401B84428CBF0020012038BDF4
:105250000020FCE770B50C46154601F05FFF2946BB
:1052600006462046FFF7E5FFB8B1B4FBF6F306FBB0
:10527000134393B9B5FBF6F306FB13536BB9AE4278
:1052800001D9002070BD01F049FF06462046FEF717
:10529000ADFFAD1B3444F9D1F3E76FF01500F1E732
:1052A00070B50D462846194616461C46FFF7C1FF45
:1052B00038B124B122462946304601F095FF00203E
:1052C00070BD6FF01500FBE743685B68D3F81035DD
:1052D0000B600020704743685B6802EA010021EA26
:1052E0000201C3F80805C3F80C1500207047436895
:1052F0005B680020C3F80815704743685B680020AE
:10530000C3F80C15704743685A68D2F8043521EA8F
:1053100003000B40C2F80805C2F80C3500207047A6
:1053200010B503695868F8B1884219D19C680868BB
:105330005860A14200D19860002008602AB15A68E4
:105340000A609A68596002B99960002010E08142B1
:1053500006D10868206098688142EDD19C60EBE737
:10536000044600680028F2D1002AE8D16FF0150049
:1053700010BD01F014BE2DE9F043476840F2063637
:10538000D0063B7C87B002EA060654BFC2F3401C3D
:105390004FF0030C01F01F05B6F5837F144645EA74
:1053A00043158DF803C043D00DD8062E16D005D86E
:1053B000A6B1022E3ED06FF0150036E0B6F5807F24
:1053C000F9D101260AE040F20222964234D0B6F525
:1053D000407F33D0B6F5007FEDD1022601232203B2
:1053E00003FA01F12CD57B68C3F80815B86868BBCF
:1053F00005F01F026D0972D1920002F1A04284F4FF
:105400008031D2F80037C1F30041C4F3404423F4A3
:10541000E16344EA410423F007031C4344EA8C049B
:1054200044EA0624C2F80047002007B0BDE8F08334
:105430000726D3E70426D1E70526CFE70326CDE7E5
:10544000630344BF7B68C3F80C15CFE70DF102027C
:10545000294601F02BFD14F4403F80460CD1B8687A
:10546000294601F051FDB8F1000FDDD19DF8021081
:10547000B868FEF79DFED7E74FF0000901ABCDE914
:105480000199CDE90439CDF80C90B86803AA2946F2
:1054900001F007FC4845C7DB14F4003314D084F452
:1054A00080349DF803308DF80E30C4F300448DF83D
:1054B0000C608DF80D40B8684B4603AA294601F0F0
:1054C0008BFC0028CFDAAFE7CDE904330DF10303FD
:1054D0000393B86803AA294601F0E3FBF1E702F55C
:1054E000E07250F82230FFDEF0B544681646A0683E
:1054F000227C01F01F0587B045EA4215002865D0DF
:10550000B6F5001F04D1294601F047FD00204EE00A
:1055100001AA0020B6F5800F0190506036D1B3F19A
:10552000007F14BF052304238DF804300023CDE948
:1055300004230393E36823FA01F111F001010DF153
:10554000030736D1B6F1A07F33D105F01F036A09F6
:1055500003F5E0733DD14FF0A04252F82330DB0752
:1055600027D4A0683A46294601F0A0FC163018D08E
:105570000297A06803AA294601F093FB002816DBD6
:10558000A0680122294601F0C1FCBFE7B3F1C06F5A
:1055900005D0B3F1007F14BF01230223C4E7032326
:1055A000C2E7A0683946FEF709FE0028E0DA07B036
:1055B000F0BDA0683A46294601F078FC0028D8D111
:1055C0009DF80310A068FEF7F3FDD2E76FF08500A9
:1055D000EDE751F82330FFDE30B543681360057AFC
:1055E000446804EBC504A34202D36FF0010030BD50
:1055F0005C798C4201D00833F0E70020F7E743687C
:105600001B68D3F88004C3F88004704742681368AD
:10561000D3F8100150B1D269002012780A70C3F893
:105620001001D3F8102101221A6070474FF0FF30AB
:10563000704702680346D2F8580140B95B68DB073F
:1056400006D4D2F82001003818BF0120704701208D
:10565000704743681B68D3F80423D20517D5D3F8E5
:105660002021A2B1EFF31182202181F31288BFF330
:105670006F8FD3F8201131B10021C3F82011D3F876
:1056800020110121D96082F31188BFF36F8FD3F805
:105690005831704713B501AA0446FFF79DFF002853
:1056A00005DB019B226819791868FCF7A1FF02B09D
:1056B00010BD6FF085007047F8B500220546012146
:1056C0000220FCF775FB0220FCF742FB6C6801210D
:1056D000E068FFF7DFFF6B681A682369C2F82435BA
:1056E000637D217D0B43C2F86C356E68D6E90043BB
:1056F00013F001033CD02F6904F10C0107F10802FB
:1057000004F5907001F086F9002830DB387AFEF756
:1057100077FB0823C4F80035B369C4F84435002387
:10572000C4F848350123A360D4F85831002BFBD0CE
:105730000026C4F800656B683146D868FFF7AAFFF9
:105740006D6831462C68E868FFF7A4FF0823C4F8A9
:1057500000352A7A52B9EB69C4F834350123C4F80C
:105760003835C4F81021D4F8102123600020F8BD8A
:105770000822C4F80025B269C4F84425C4F84835A5
:105780000123A360D4F82031002BFBD00023C4F800
:105790002031D4F820310123E3604FF48073C4F842
:1057A0000433C1E700F150039B009BB203F1804337
:1057B00003F5883300221A601B6870478068183828
:1057C00020F0070010387047042809D0052803D1BD
:1057D000481E18BF01207047431A5842584170476D
:1057E0000120704738B515460C4661B15AB1FFF734
:1057F000AEFB2544214611F8013B834203D1A94267
:10580000F9D1012038BD0020FCE738B50C46012352
:10581000114622460546FFF754FB00280FDB012204
:1058200021462846FFF7DEFF38B92378012B14BF45
:10583000022301232370002038BD0323FAE701204F
:10584000FAE72DE9F7431D4606460F469046FFF757
:1058500077FB6C1E044440420440082C01D9FFF73A
:1058600000FC3046FFF773FB2A46814641466846F6
:1058700001F0BAFC621B49460DEB050001F0C2FCC9
:1058800023466A4639463046FFF730FB003818BFDA
:10589000012003B0BDE8F08307B501238DF8042093
:1058A00001AAFFF7CEFF03B05DF804FB8168183949
:1058B000012221F00701FFF7EFBF8268183A22F0BA
:1058C0000702FFF7A2BF13B50C46C0B201A9FBF750
:1058D000E7FF50B921460198FDF72CFA04460198DC
:1058E000FFF7EEFA204602B010BD0124FAE70E2AB7
:1058F00013B5044601D9FFF7B4FB0E29FBD841EAE2
:1059000002118DF80710FFF759FF012301460DF131
:1059100007022046FFF795FF02B010BD81681839D5
:1059200021F0070101220839FFF7B6BF70B50468FE
:105930000D1B002D02DC6FF05F0070BD94F900605C
:105940002378002E0ADB631C03602378136003684E
:10595000C91A13688B42EED80020EEE703F07F03EC
:105960005C1E032C13D89D42E5DD002414600468FE
:105970000134046004681568247844EA052414603E
:105980000468013B04F101040460F3D1DFE76FF028
:105990006300D2E770B404680E1B002E07DD267882
:1059A0009E4208D10134046070BCFFF7BFBF6FF0A6
:1059B0005F0070BC70476FF06100FAE773B50223B7
:1059C000154601AA0446FFF7E5FF40B9019E21688C
:1059D0003246284600F0AAFB23683344236002B015
:1059E00070BD0139002901DA0020704750F82130DC
:1059F000002BF6D0B3FA83F00131C0EB41107047B1
:105A000039B101F18041013900EB81018142034646
:105A100000D270471B680A681BBA12BA40F8042B00
:105A200041F80439F2E72DE9F0411C4613F0030375
:105A300018BF012303EB94038B4206460D469046A4
:105A400013D879B18F003A46002101F0DBFB2CB16D
:105A5000381B22464146304401F0C6FB29463046F9
:105A6000FFF7CEFF0020BDE8F0816FF00700FAE7F6
:105A7000B3EB810F70B504464FEA8105104619D982
:105A80005A1B8618002101F0BDFB30462B46C21878
:105A900000218B4210D1002070BD22F0030102F0E2
:105AA00003066158F600F140C9B281B90132AA4239
:105AB000F3D1ECE71A46FAE721F0030001F0030501
:105AC0002058ED00E84002F8010D0131E1E76FF0E8
:105AD0000700E1E7F8B50546500988420C4602F098
