:020000040000FA
:10000000C028002065360000958B000051360000A6
:10001000513600005136000051360000000000004B
:10002000000000000000000000000000DD370000BC
:100030005136000000000000793700005136000002
:10004000BD390000BD390000BD390000BD390000D8
:10005000BD390000BD390000BD390000BD390000C8
:10006000BD390000BD390000BD390000BD390000B8
:10007000BD390000BD390000BD390000BD390000A8
:10008000BD390000BD390000BD390000BD39000098
:10009000BD390000BD390000BD390000BD39000088
:1000A000BD390000BD390000BD390000BD39000078
:1000B000BD390000BD390000BD390000BD39000068
:1000C000BD390000BD390000BD390000BD39000058
:1000D000BD390000BD390000BD390000034613F8EA
:1000E000012B002AFBD1181A0138704710B50D48B2
:1000F00009F056F840B90C4A0C48012108F0D1FC2F
:100100006FF00404204610BD002000F067FC044698
:100110000028F7D0064A03460121044808F0CAFC2B
:10012000F0E700BFC09400006C98000074960000D7
:10013000829800002DE9F7430024DFF8B8802546B7
:10014000264627460021122007F056F9D8F8083035
:100150001B686BB10DF1070140469847034650B14B
:10016000421CEFD0244A2548012108F0A3FCE9E70E
:100170006FF05703F6E787B99DF80760360209F07C
:1001800085F84FF47A73A0FB030503FB0155C40BFC
:1001900044EA45440127ED0BD4E709F077F84FF422
:1001A0007A79A0FB090309FB0131C20B42EA414203
:1001B000121B4FEAD13161EB0501062A71F10001F2
:1001C0009DF807300BDB1E0209F060F8A0FB090563
:1001D00009FB0155C40B44EA4544ED0BB2E71E434D
:1001E000074A06483346032108F064FC304603B052
:1001F000BDE8F083C0940000A6980000749600004B
:10020000BD980000F0B585B285B0964A96482B4659
:10021000032108F04FFCAB0B022BC5F30526ECB213
:1002200000F06F81032B00F05481012B00F06281FC
:100230000027ADF8027008F04DF9092E61D8DFE80B
:1002400016F00A00150031005B0068009300BB0047
:10025000D000DB000301032C53D8844B1F70844B68
:100260001F7000F023FC00284BD106E00F2C48D86B
:100270007E4B240124F03F041C70BDF802407D4AEF
:1002800079482346032108F015FC7B4DAE68210A0E
:1002900073682846984728467368E1B2984700205B
:1002A00005B0F0BD043C0F2C2BD8DFE804F00808A3
:1002B00008080F0F0F0F171717171E1E1E1E0020FE
:1002C00000F002FCE8B96A4B1870D6E7012000F094
:1002D000FBFBB0B9664B01221A70CEE7022000F09A
:1002E000F3FB70B9624B0222F6E7032000F0ECFB4F
:1002F00038B95F4B0322EFE7032C04D9043C032CED
:1003000005D90124BBE7002008F0E6F8ABE701209F
:10031000FAE7032CF5D801A800F0EEFB9DF80430B5
:100320009DF805205B0043EA82039DF8062043EA1E
:10033000C2039DF8072043EA02139DF8082043EA10
:1003400042139DF8092043EA82139DF80A2043EAEC
:10035000C2139DF80B2043EA02239DF80C2043EAC8
:100360004223ADF8023088E7102CCAD8DFE804F049
:100370000909090914141414181818181C1C1C1C39
:1003800020000DF10201002008F0ACF8BDF80230A9
:100390005B00ADF8023066E70DF102010120F3E7E2
:1003A0000DF102010220EFE70DF102010320EBE75E
:1003B0000DF102010420E7E7A30904F01F0124B9AD
:1003C0002146204608F0A3F84DE7012B05D0022B6B
:1003D00005D0002B95D10120F4E70220F2E703209D
:1003E000F0E7A409012C03D0022C8AD1012000E0FF
:1003F000002008F092F836E704F07F00431E4A2BF5
:100400004FEAD4123FF67DAF1C4B52B9012203F8DC
:10041000012B01329042FAD20246184908F080F8C6
:1004200021E7194601F8012B01329042FAD2034428
:100430000246013A12F0FF0203D14200013AD2B261
:10044000EBE703F8012BF4E769B27E2918D07F2986
:100450003BD07F34E4B2932C3FF653AF002202200E
:1004600011E000BFD59800007496000073120020C0
:1004700072120020EF980000C0940000DC110020F0
:1004800000221146104600F041FBC0F307238DF80F
:100490000400C0F307408DF805308DF806009DF884
:1004A00004309DF806205B00ADF802301AB143F429
:1004B0008063ADF802309DF80520BDF80230002AB7
:1004C0003FF4DBAE43F400734BE7002211460120FA
:1004D000D9E7002E7FF415AF032C3FF612AF01A829
:1004E00000F0F8FC00287FF40CAFBDF8044044F4A1
:1004F0000044C4E6304600F06FFB041E18BF012420
:10050000BDE604F00302022AC5F3850104D0032AE4
:1005100006D0531E5A425A41064B1B78194305E038
:10052000054B1B78012B4FF00402F5D8304600F044
:1005300071FBE2E77312002072120020042808B554
:100540000ADC10F1100F12DA10F11E0F4CD010F16E
:10055000140F4BD028304BD0274928484FF48062E5
:1005600008F084F824484FF4806108F076F81030E1
:100570001428F1D801A353F820F000BFF5050000BE
:10058000590500005905000059050000D10500007B
:10059000590500005905000059050000D505000067
:1005A000590500005905000059050000D905000053
:1005B000590500005905000059050000DD0500003F
:1005C0005905000059050000E1050000E50500009F
:1005D000F42008BDF820FCE7FC20FAE70020F8E74B
:1005E0000320F6E70420F4E7FF20F2E7EC20F0E731
:1005F000D820EEE7F020ECE7119900002C990000DC
:1006000070B5104D104C95F8900304F0CDFD00230B
:10061000C4F80032C4F81031D4F81031012323613A
:10062000D4F81031002BFBD00026C4F81061012053
:10063000D4F8103103F0F2F80B23C4F808336E80BD
:1006400070BD00BFC004002000100040064C0748E9
:10065000214608B540F24F4208F008F840F24F41F9
:10066000204607F0FAFF00BF119900002C99000006
:1006700010B5224C94F8311294F9320200F038FC93
:1006800028B91F4807F0DCFF6FF0150010BDFFF719
:10069000B7FF94F93202FFF751FF1A4BC3F80C056C
:1006A00094F83122C3F81025D3F8502642F0010205
:1006B000C3F85026D4F81C22110E1202C3F82415D8
:1006C000C3F81C250122C3F8302500200E4AC3F8C8
:1006D0002C05C3F83C2540F20312C3F8342540F240
:1006E0005B62C3F8382594F81822120642F484722B
:1006F000C3F81425054AC3F81825C7E7C00400202D
:10070000449900000010004055555500FF000300BB
:100710002DE9F041474BD3F8042122B10022C3F860
:100720000421D3F80421D3F80C21002A4BD0002255
:10073000C3F80C21D3F80C213F4A404C0221C2F8E7
:1007400080112278042A3ED1D4F80852221DA91A19
:100750004A424A414FF4817101FB02420432C4F81B
:100760000822C3F8042501225A60D3F80034D807C0
:1007700023D594F8343294F831022E7895F801801C
:10078000002BA0F103030CBF02270327934206F0BE
:100790000F060CD8022E10D807F0C5FEE819072E58
:1007A0000BD8DFE806F03023453A3D3F414307F0E0
:1007B000BAFE0028F2D0042EF0D94FF48172002145
:1007C000284608F09BFD1B4BD3F8002122B10022E4
:1007D000C3F80021D3F80021D3F81C2122B1002254
:1007E000C3F81C21D3F81C31BDE8F0810F23691C2C
:1007F0000022D0B240450CD211F8010F984202F10C
:100800000102F6D0D9E70E49424608F07FFD0028E4
:10081000D3D1638801336380CFE70A494246F4E7C6
:10082000FF23E4E70023E2E7F023E0E7AA23DEE783
:100830005523DCE70010004000E100E0C004002088
:10084000F89A0000F9990000F8B5194D95F814329E
:10085000272B064601D9FFF7F9FE164C5B00023341
:10086000C4F80835D5F80832C4F804350027C4F8B0
:100870000071D4F800310323C4F800320E4B022279
:10088000C3F88021012002F0BBFF8B23C4F804339E
:1008900036B1C4F80C71D4F80C3101236360F8BD93
:1008A00095F93202FFF74AFEC4F80C05F7E700BFDE
:1008B000C00400200010004000E100E010B52D4B06
:1008C000BFF35B8F53E8002F22F4803143E8001020
:1008D0000028F7D1BFF35B8F12F4803F1C4605D090
:1008E000A3F56573D3F8200208F013FBBFF35B8F09
:1008F00054E8003F23F0040244E800210029F7D126
:10090000BFF35B8F590705D51B4808F002FB1B4856
:1009100008F0FFFABFF35B8F54E8003F23F01002AA
:1009200044E800210029F7D1BFF35B8FDA0605D533
:10093000114808F0EEFA124808F0EBFABFF35B8FAB
:1009400054E8003F23F4807244E800210029F7D1E5
:10095000BFF35B8FDB050BD50A4BD3F8200200F504
:10096000A07008F0D6FABDE81040044808F0D1BAEB
:1009700010BD00BF5408002000410140001000409D
:1009800004100040C004002070B5124C204605F051
:1009900001FB94F8700104F007FC0F4BA4F50875F7
:1009A0000026C3F80061D3F80031FFF787FFD5F8C0
:1009B0002032C3F80062D5F820324FF0FF32C3F87E
:1009C0000823204605F004FBFFF71AFE01232B70D5
:1009D00070BD00BFE00600200040014030B5054674
:1009E00085B0002003F0A6FB38B9274807F028FEA1
:1009F0006FF00504204605B030BD0023019303933A
:100A000069460123029301F05DFB041E04DA1F48CE
:100A1000214607F015FEEDE7029B9B07FCD1039CE6
:100A200014B11B482146F4E71A4B1B4A1B4800939C
:100A30006946CDE9014405F069FA014628B1184834
:100A400007F0FEFD6FF00A04D4E7224603210820D8
:100A500002F006FF2146134A204604F037FB2246E7
:100A60000221012002F0FCFE012002F0C9FEFFF786
:100A7000FFFD04460028BDD10B4B01221A70C3F8BC
:100A80000C02C3F88C53B5E77499000095990000E7
:100A9000AF99000040420F00D3840000E006002020
:100AA000CF99000050080020C0040020054B002210
:100AB0000321C3F80C2283F8311283F81822FFF7C0
:100AC000D7BD00BFC0040020012808D00FD90238CC
:100AD00001288CBF6FF015006FF08500704704226D
:100AE000044B83F8312283F81802FFF7C1BD0322BB
:100AF0000020F5E7C0040020034A11680160516836
:100B0000127A416002727047F0990000272AF7B507
:100B100007460D4601D9FFF799FD07F006FD46B2DD
:100B200007F006FD012F44B244D0022F0DD077B15B
:100B300000231A461C46DBB2002063F3070062F371
:100B40000F2064F3174003B0F0BDB54206DC1F4B25
:100B500083F83262334600240122ECE7A54229DA09
:100B600007F0E8FC074600F0D5F901239F4214D9AD
:100B7000C1568D421CDA18444A1B10F9013C002A68
:100B8000A3EB0505B8BF5242002DB8BF6D4252B26B
:100B9000AA42B8BF0B467F2B0DD10D490D4840F23C
:100BA000454207F063FD0A4840F2454107F055FD14
:100BB0000133DBE72346054A9E4282F83232CAD02F
:100BC000E21A544254410022B5E700BFC00400209D
:100BD000119900002C990000272838B5034613D836
:100BE0000B4D0024281D4FF401722146C5F8143224
:100BF000C5F808026C8008F081FB0120FFF724FE95
:100C000004232B70204638BD6FF01500FBE700BFB2
:100C1000C0040020F7B5A74C03462078012840F017
:100C20004581042A04F1040042D194F83122033AA8
:100C3000012A11D8C4E98201092284F81022002275
:100C400062806171012940F2FE80022900F00E816C
:100C50006FF0150003B0F0BDC4E98201052284F8ED
:100C60001022272BC4F81432F2D80025658094F89E
:100C700034526171002D0CBF02250325092AE7D8E3
:100C800001A656F822F000BFBF0C0000FB0D0000CB
:100C90000B0E0000150E0000510C00001F0E00008E
:100CA000290E0000330E00003D0E0000450C000030
:100CB000092AC4E9820184F81022D2D1BFE70023B7
:100CC0000A467D492371284408F00AFB94F834321F
:100CD00053B1D4F80822137843F020031370D4F8EA
:100CE000083294F88A239A700020FFF7ADFD94F83B
:100CF0003102D4F80C2294F8341204284FEAC202CC
:100D000000F0C6800328134640F0C480002940F05C
:100D1000C680503340F27121F9330A46934201F202
:100D20007121FAD80026012364480096314605F067
:100D30009FF9634D94F89013624808F0E8F894F82E
:100D40009013614808F0E3F8BFF35B8F55E8003F6C
:100D500043F0040345E80032002AF7D1BFF35B8F6C
:100D600094F89013D4F8200208F0D1F8BFF35B8F09
:100D700055E8003F43F4803345E80032002AF7D1BC
:100D8000BFF35B8F94F8900304F006FAEFF311873A
:100D9000202383F31288BFF36F8F4C4BC3F800619D
:100DA000D3F8002101221A6094F8900304F0FCF9B2
:100DB000FFF784FDD4F8200294F8901300F5A0709A
:100DC00008F0A5F894F890133F4808F0A0F8BFF396
:100DD0005B8F55E8003F43F4807345E80032002AFA
:100DE000F7D1BFF35B8F94F8900304F0D5F987F344
:100DF0001188BFF36F8F022336E001230A46237167
:100E00000F21284408F07AFA60E702230A4623718A
:100E10005521F6E703230A4623712D4953E704239E
:100E20000A462371FF21ECE705230A4623710021BE
:100E3000E7E706230A462371F021E2E707230A4683
:100E40002371AA21DDE70020C4F81432FFF7FCFC6F
:100E50001D4BD3F8502642F00102C3F85026012260
:100E6000C3F800221A60032323700FE013F0300F41
:100E700018BF43F0C0035DB294F83112284600F069
:100E800037F800283FF4E4AE84F832520020E1E65F
:100E90005832530800293FF43DAF043301E002F11A
:100EA000580394F8882303EBC20333E76FF00F0075
:100EB000D0E600BFC0040020F89A0000E006002041
:100EC0005408002000410140001000400040014053
:100ED000F999000008B530B1044B5B880380FFF737
:100EE00053FD002008BD6FF01500FBE7C004002093
:100EF0000339012908D8064A002312F9011B81424F
:100F000004D001330A2BF8D100207047012070472C
:100F1000F79B000000487047F79B000010B50B4896
:100F200007F08EFBFFF7E2F8044628B101460848B7
:100F300007F086FB204610BDFFF7FCF8FFF762F9CB
:100F400004460028F8D001460248F1E7019C000061
:100F5000239C0000499C0000B2F5802F2DE9F04150
:100F60000AD33449344840F2132207F07FFB40F2A1
:100F70001321304807F071FB042A08D82D492E4868
:100F800040F21A2207F072FB40F21A21F1E7043A0C
:100F9000CD1D8E1825F0070526F00706761B172EA7
:100FA0004FEAD60708D82349234840F2232207F006
:100FB0005DFB40F22321DCE7B7FA87F4C4F120029D
:100FC000C4F12404A4000734E408631C4FF00008B3
:100FD000BB420560AF60C5F80C8008D915491648BA
:100FE0004FF40E7207F042FB4FF40E71C1E7414619
:100FF000920005F1100008F081F9630043F001034D
:101000006B8005EBC4023B1B5900A5F800805180A2
:10101000AA1925F83440A2F80280AB5305EBC703A8
:1010200021465A8842F001025A802846BDE8F04124
:1010300007F087BA679C00002C9900002DE9F04F5B
:1010400091B08407009302F004030293C2F3C20339
:1010500003F10103DDF86880039205460E4605930F
:1010600040F0E081041D30B1072909D86FF01B0062
:1010700011B0BDE8F08F01F007063444C6F1080650
:10108000009B4FF00009591E4FF0040A4FF0FF3348
:101090000193CDF810904F46CB4653460DB1009AC0
:1010A00022600598002800F3D7809548009A824274
:1010B00003D394488242C0F0CF80039AA4EB050E7C
:1010C00092074FEA9E0040F1DE804FF0000CCCE02A
:1010D0007A285DD84B280ED8472859D829282DD8EA
:1010E000252852D054D820287AD02338D0F1000BAC
:1010F0004BEB000B74E04C382E2849D8DFE800F0A9
:101100007048484848484848484848484B48484834
:10111000484848484859484B4B595959704B6D48B5
:101120007048184B18484883804B48484B4880000B
:1011300000204FF0000B4FF0040A38E02A38C0B20C
:10114000012202FA00F010EA0E0F49D110F0625CA1
:101150002FD110EA020B43D06046013C5444B4FB4B
:10116000FAF40AFB04F4002D60D0A3EB050CA444B0
:10117000B4453FF67BAF002867D1042B48D158F81F
:10118000043B2360043404232AE0019A013A0192CB
:101190004FF0000B24E011F8010C6C2835D111F848
:1011A000023C00206C2B8346C5D14FF0080A534601
:1011B000D3E708F1070828F007080734F8E802AB7E
:1011C00024F0070435B106982044B0423FF64EAFF4
:1011D000C4E900AB08344FF0000B4FF0080A534647
:1011E00011F8010F002800F0A980BBF1000F7FF477
:1011F0006FAF2528F4D1019B013301934FF0010B10
:101200004FF0040AEBE7584693E700208346A4E733
:10121000082B40F08A8008F1070828F00708F8E852
:101220000223C4E9002308340823D9E768B9042B52
:1012300002D108F10408A5E7082B76D108F10708C8
:1012400028F0070808F10808EDE7059A013A059229
:1012500058F8042B009221E7039A900744D5A4EB99
:10126000050E4FEA9E004FF0010CBEF5007F1BD328
:10127000254926484FF41F7207F0F8F94FF41F7103
:10128000214807F0EAF90F2F10D8002D40D007F1C0
:1012900040020DEB020C019A0CF8200C0CF8102CFB
:1012A0000498013004901EE00F2F08D91649174802
:1012B00040F2812207F0DAF940F28121E0E7D5B16E
:1012C00007F140020DEB020EC0B2019A0EF8200C9D
:1012D0000EF8102CBCF1000FE2D060F07F000EF889
:1012E000200C09F101090137C5F108020434069206
:1012F0004FF6DA7E74E7BCF1000F09D00136F2E751
:101300003894000020AB00008A9C00002C9900005B
:10131000029802360028E6D10098CDE90631FEF7A2
:10132000DDFEDDE906310644DDE74049404840F294
:10133000C62207F09BF940F2C621A1E7631BB3F573
:10134000806F08D339493A4840F2D22207F08EF92B
:1013500040F2D22194E71DB9A6F10804E01887E60F
:10136000029A28609B082B709DF81030C2B1EB7078
:1013700085F80290B9F1000F05D008A80022C5F148
:10138000010C97420ED1C5F101030DF120084FF079
:10139000000A01930DF1300B574512D1601B67E62F
:1013A0006B70E5E710F8013B190608D50CEB040E4D
:1013B000B64503F07F033FF659AE04F8013B013216
:1013C000DFE7B9F1000F03D098F90020002A17DBFE
:1013D000029BD3B11AF80B2004F8012B0022019BC9
:1013E00018191044B0423FF641AE98F8000004F8D6
:1013F000010B00990392204607F072FF039A1444F0
:101400000AF1010A08F10108C6E798F8002055F82A
:1014100022300093029B45F822300098FEF75EFED2
:10142000421CDCE76FF00D0022E600BF8A9C000042
:101430002C9900002DE9F04F97B000AF8946D7F8FE
:1014400080B0FA623B62044650B9A849A84840F20D
:10145000993207F00BF940F29931A44807F0FDF8F2
:10146000CBF3C00390F802A07B6141B945780078C6
:101470000AEB800020444D4517D8A0EB0409E3781F
:10148000FB61BAF1000F02D01BF0010F16D1FB690E
:1014900053BBFB6A1BB13A6A4946204698474D4602
:1014A00028465C37BD46BDE8F08F461C3046FEF747
:1014B00015FE0130304409F10109DCE72378626848
:1014C0007A62FA6A9900B96104EB8301002A40F05C
:1014D00001814D460E4601EB0A094FF000084E45CA
:1014E0004CD101EB0A0610E01BF0020FD1D023789B
:1014F0009A00BA6162687A62FA6A04EB8301002A90
:1015000077D14D4601EB0A0690461BF0050F0CBF44
:1015100002230123FB62FB6906EB430A0BF0020383
:10152000BB625645BCD016F8021B16F8013C54F8B5
:101530002390704B994502D36F4B994536D37B6905
:10154000002B40D0786A07F054F800283BD0E946D9
:101550008AB06A46694B53617B6AC2E906314FF42F
:1015600000731384664B42F8103F664800234FF423
:10157000125101F085F9023DCD46D2E716F8013B44
:10158000F96254F82300FEF7A9FDD7F88430F96A10
:1015900001304BB1D7F8883098453EBFD7F884303A
:1015A00023F8180008F10108054498E77B6923B186
:1015B000786A07F01EF80028C9D11BF0010F05D189
:1015C000FB6AED1AADE7BB6A002BAAD04846FEF7CE
:1015D00085FDD7F8843053B1D7F8883098453FBFA0
:1015E000D7F88420431C22F8183008F1010805447C
:1015F00097E7BAF1000F73D01BF0040673D0D04602
:10160000002607F1480052463B61B96207F068FEC8
:10161000B96A3B6901EB0A02BA62FA69F9695200D8
:10162000FA60BA6A02EB41023A610BF00202BA6058
:10163000BA6A39698A4267D162787A621BF0020F0E
:1016400032440CBF4FEA580100211BF0010FD2B207
:1016500040F0DF801BF0040F14BF404600207B6188
:101660006270A070E1703A6AB969FB6A20469847D7
:10167000051EFFF615AF7B6923707B6A6370FB69FB
:10168000E37041463A6AFB6A84F802A007F1480019
:101690009847B0F10008C0F2F080BB693A6AA9EB44
:1016A0000A01C91AFB68C91AD7E90A039847002832
:1016B000C0F2E580A84408EB00054FF0000B07F1ED
:1016C000380AB345C0F0A78000213A6AFB6A084691
:1016D0009847E5E656464FF0000807F1380092E7D4
:1016E0005646D04696E7B04694E700BF8A9C000075
:1016F0002C9900003894000020AB0000B89C00003A
:101700000400000164960000BA6A12F8021BBA6273
:1017100012F8015C5B4A54F82500904202D35A4A01
:10172000904217D37A693AB1786A7B6006F061FF1C
:101730007B6800287FF47CAFBA68002A49D00F2E5E
:101740003DD95249524840F24D4206F08FFF40F2D7
:101750004D4182E67A693AB1786A7B6006F049FFCA
:101760007B6800287FF464AF1BF0010F0AD00F2EB6
:1017700025D94649464840F2434206F077FF40F2F9
:1017800043416AE61BF0040F3FF452AFB8F10F0F6C
:1017900008D93E493E4840F2464206F067FF40F213
:1017A00046415AE608F1280207F1300008F101012C
:1017B00002EB000808F8105C5FFA81F838E706F1E0
:1017C000280207F13000711C161806F8205CCEB212
:1017D0002EE7B8F10F0F08D92C492D484FF48A6233
:1017E00006F044FF4FF48A6137E608F1280207F15A
:1017F000300C08F10100944407F1580252FA80F0CD
:1018000008F102080CF8101C5FFA88F800F8105C68
:101810000EE7002023E71BF80A3087F8373054F82A
:101820002390D7F884302BB3D7F888309B4521D24A
:10183000D7F8843033F81B803A6AFB6A012107F13C
:101840003700984700281ADB0544B8F1000F06D18D
:101850004846FEF743FC00F101081FFA88F83A6A8F
:10186000FB6A414648469847002808DB05440BF1CF
:10187000010B26E74FF00008DEE7454610E6054677
:101880000EE600BF3894000020AB00008A9C0000E8
:101890002C99000080B505460E461746984605F07F
:1018A0002DFE034607F0BEFDDFF81890044649F808
:1018B0000030424630463946A84754F8090001F046
:1018C00045FF00BF0800000038B50D460446202241
:1018D000002107F013FDEB68E361AB68A3612B689F
:1018E00023626B6863620022A2622A6923B1591ED7
:1018F000194208BF42F0010222610122002104F1D5
:101900002C0007F060FC40B1044905482F2206F086
:10191000ADFE02482F2106F0A0FE38BD6C9D0000F0
:101920002C9900002DE9F04F89B0CDE90123436ADD
:1019300000268B420446884605960796B24652D347
:1019400000F114074FF0200BEFF3118300938BF39A
:101950001288BFF36F8F3846DDF8009005F096FFD0
:1019600040B946494648882206F080FE882143480F
:1019700006F073FE384605F0ADFF079A2AB13146EE
:10198000204606F05BFF0023079306A9204606F0D9
:101990007AFE0699414505462ED32268236A13F83C
:1019A000221021F0030103F8221003EB820A2168C0
:1019B0004246204606F08BFEE3682060984216D02F
:1019C0000025384605F070FF50B389F31188BFF346
:1019D0006F8F059929B1A3690BB120469847002361
:1019E0000593002DB0D1504609B0BDE8F08F2369B2
:1019F00043F008032361E3E718B1204606F081FEB7
:101A0000DFE7DDE90132134330D0039107F0E7FB54
:101A1000039958BB009B4BBB384605F045FF40B9C6
:101A2000164917484FF49A7206F020FE4FF49A7147
:101A30009DE785F31188BFF36F8FDDE9012304F182
:101A40002C0004F0C3FE0546EFF311898BF31288D6
:101A5000BFF36F8F384605F019FF002881D0384654
:101A6000B5FA85F505F036FF6D09AAE707AB05AABB
:101A70002046266806F062FE0546A2E7929D000019
:101A80002C9900002DE9F0410446C36908460D4633
:101A9000984704F114060746EFF31188202383F3D7
:101AA0001288BFF36F8F304605F0F0FE40B916493B
:101AB0001648882206F0DAFD8821134806F0CDFD8D
:101AC000304605F007FF2B7843F001032B70616867
:101AD0003A46204606F0FBFD6060204606F0C9FE4F
:101AE000304605F0E1FE40B9074908484FF49A72C4
:101AF00006F0BCFD4FF49A71DFE788F31188BFF35D
:101B00006F8FBDE8F08100BF929D00002C9900000E
:101B10002DE9F843044600F11407EFF31188202360
:101B200083F31288BFF36F8F384605F0AFFE05468A
:101B300040B930493048882206F098FD88212D4868
:101B400006F08BFD384605F0C5FE2369A26813F048
:101B5000080F02D163689A4200D9636A9B1A002B6E
:101B60003AD0216A11F8223013F0030001EB820908
:101B700035D0022803D151F82260B60805D1D80724
:101B80001AD4E369484698470646A168324620467B
:101B900006F09DFD3146A060204606F0A6FD3846C1
:101BA00005F082FEE8B9134913484FF49A7206F023
:101BB0005DFD4FF49A71C2E743F0020301F8223051
:101BC0004846E369A568984729460246204606F03C
:101BD0007EFD0025A060E2E71D46A946DFE7054639
:101BE000FBE788F31188BFF36F8F002D95D148462E
:101BF000BDE8F883929D00002C9900002DE9F0418A
:101C00000446C36908460D46984704F11407064682
:101C1000EFF31188202383F31288BFF36F8F3846C8
:101C200005F034FE40B923492348882206F01EFD02
:101C30008821204806F011FD384605F04BFE2B7830
:101C40006FF300032B7023699B0705D5E268236AB5
:101C500003EB82039D421DD12B786FF341032B7060
:101C6000D4E90231994204D13246204606F02FFDD4
:101C7000A0603146204606F038FD384605F014FED7
:101C800068B90C490C484FF49A7206F0EFFC4FF417
:101C90009A71CEE72B6866F39F032B60EDE788F31C
:101CA0001188BFF36F8F04F12C00BDE8F04104F000
:101CB00029BD00BF929D00002C99000070B504461C
:101CC00000F11405EFF31186202383F31288BFF38C
:101CD0006F8F284605F0DAFD40B91649164888226C
:101CE00006F0C4FC8821134806F0B7FC284605F02E
:101CF000F1FD2369A06813F0080F02D163689842D0
:101D00000ED9646A241A284605F0CEFD50B9094957
:101D100009484FF49A7206F0A9FC4FF49A71E2E771
:101D20001C1AF0E786F31188BFF36F8F201E18BFCF
:101D3000012070BD929D00002C9900002DE9F84F04
:101D400004460846A38B1907164612D4022803F04E
:101D5000070162D1204606F099FD88B101380428B8
:101D600000F22581DFE810F0590023017E00C80051
:101D7000F50001280CBF43F0100143F02001A183BE
:101D800004F1140005F090FD002800F0AB8086F30C
:101D90001188BFF36F8FBDE8F88F03F00702501F63
:101DA00001281ED80020062A2768C4E9000014D1A3
:101DB0003A4603E0E08B0130E0831268002AF9D153
:101DC00023F0070343F00202A283204606F05EFDE3
:101DD00090B342F02002A2832EE023F007039AB2D0
:101DE000F2E7042A33D123F007039AB2A2832046F4
:101DF00006F04CFD10B142F02002A283A38B03F049
:101E00000709894540F0DC80A18BCA0640F1218199
:101E100021F01003A38301F00701D4F81880A38BED
:101E2000B8F1000FB9DA0022276823F00703C4E9EC
:101E3000002243F00103A383A38B03F00709894524
:101E400040F0BF80002FDFD00025AA4640E0854942
:101E5000854840F21B1206F009FC40F21B11814834
:101E600006F0FBFB41B17F497F484FF4AB7206F0AF
:101E7000FDFB4FF4AB71F2E7236843B979497A4827
:101E800040F2571206F0F2FB40F25711E7E72369E0
:101E90001D6845B9734974484FF4AD7206F0E6FB0E
:101EA0004FF4AD71DBE7A38B23F0070343F0060388
:101EB0009BB2A3830F4688464FF00609A268002A0A
:101EC00040F08180002F40F08180002D9CD0BA46E8
:101ED00043F0080304F1140BA383584605F0E4FC17
:101EE000002875D1614960484FF49A7206F0BEFB34
:101EF0004FF49A715D48B3E7022908D059495A480E
:101F000040F25D1206F0B2FB40F25D11A7E7E78BED
:101F100047B1544954484FF4AF7206F0A7FB4FF451
:101F2000AF719CE723695D6845B94E494E4840F260
:101F3000611206F09BFB40F2611190E7A38B23F046
:101F4000070343F004039BB2A383B8464FF0040990
:101F5000B4E7012908D0434943484FF4B27206F070
:101F600085FB4FF4B2717AE7236843B93D493E4897
:101F700040F2651206F07AFB40F265116FE72369C3
:101F80009D6845B9374938484FF4B47206F06EFB86
:101F90004FF4B47163E7A38B23F0070343F0050309
:101FA0009BB20027A383B8464FF0050986E72D4969
:101FB0002D4840F26B1206F059FB40F26B114EE7D0
:101FC000002700257AE74FF0010A81E792467FE774
:101FD00086F31188BFF36F8FBAF1000F16D147BB9C
:101FE00015B123492046A847EFF31186202383F338
:101FF0001288BFF36F8F584605F048FC08BB1B4999
:102000001948882206F032FB882173E7A16800296D
:10201000E5D00E680029E2D0D1F804A043464A4634
:102020002046D0471EB1336831461E46F2E733469C
:10203000FAE7394643464A4620463F6806F052FCD6
:10204000CDE7584605F046FCA38B23F00803A38395
:10205000DAE68B067FF594AE21F02003A38301F02E
:10206000070177E6BF9D00002C990000929D0000BB
:1020700075200000F8B504460D4600F11406EFF394
:102080001187202383F31288BFF36F8F304605F04A
:10209000FDFB40B909490A48882206F0E7FA0748DB
:1020A000882106F0DAFA304605F014FCA5613A46BC
:1020B00020460121BDE8F840FFF740BE929D000098
:1020C0002C9900002DE9F04704460F4606F0FAFB74
:1020D000051E5DDB04F11409EFF3118A202383F35D
:1020E0001288BFF36F8F484605F0D0FB804638B9A1
:1020F00033493448882206F0B9FA882130483CE058
:10210000484605F0E7FBE38BA68B4FF6FF72934240
:1021100006F007063FD0022E10D10133E383354687
:10212000484605F0C1FB00283BD1254925484FF41E
:102130009A7206F09BFA4FF49A71DFE7062E13D8D5
:10214000DFE806F0092C1212090409006FF085057A
:102150004FF00008E4E700233B6063687BB9C4E903
:1021600000777EB13546F3E7174916484FF4E4721D
:1021700006F07CFA14484FF4E47106F06EFA1F6022
:102180006760EEE7524602212046FFF7D7FD35464D
:102190002846BDE8F0876FF00A05D9E76FF004051F
:1021A000D6E78AF31188BFF36F8FB8F1000FEFD035
:1021B000002332463946204606F094FBE8E700BF8C
:1021C000929D00002C990000BF9D000008B5426858
:1021D000816002F00302032A034602D02AB10020E4
:1021E00000E0006800225A6008BD04490448452206
:1021F00006F03CFA0148452106F02FFAE49D000064
:102200002C99000030B51049104889B0002207F021
:102210003FF80F4D0F4900220023CDE9062300248B
:102220000E23CDE90334CDE901440B4B00944FF468
:102230000062284604F0EAFB0849284604F026FB21
:10224000204609B030BD00BF95230000F00D0020EE
:1022500038090020C0120020A92600000A9E0000B4
:102260002DE9F047DFF85880044607464FF0010992
:1022700014B93846BDE8F08794FAA4F5B5FA85F5A7
:1022800009FA05F32E0108EB05156FEA030A24EAA3
:1022900003042B7B002BEBD058F806301B694BB99D
:1022A0004644042273682846196807EA0A0706F0BC
:1022B00088FBDDE7284698470028D9D1F0E700BF22
:1022C000AC9600002DE9F047DFF8B4902D4CA9EB57
:1022D00004038F2B80460F460AD92B492B484FF415
:1022E000A67206F0C3F94FF4A671274806F0B5F9B7
:1022F000274806F046FB064658B300252846BDE8A9
:10230000F087237B83B12368DB680BB120469847B5
:10231000636883F806A023681B6993B96368042285
:102320001968204606F04DFB013610344C4514D98F
:10233000154916484FF4AC7206F098F94FF4AC7199
:10234000D3E7204698470028E8D00AFA06F31D4351
:10235000EAE705464FF0010AE8E7D2D3B8F1000FEB
:10236000CCD0002DC9D02846FFF77AFF0546002FB4
:10237000F7D000214FF4A47005F03EF8F1E700BF5C
:10238000BC960000AC960000129E00002C99000044
:102390009C100020014804F0B5B900BF28090020B6
:1023A000014B53F8200070471C97000008B5034606
:1023B00008462BB1044A136000F070FD002008BDF0
:1023C0006FF01500FBE700BF5808002010B5044C63
:1023D000237813B9034804F095F90123237010BD45
:1023E000741200202809002010B504460B4806F09E
:1023F000C8FA5CB1BFF35B8F094B53E8001F01398A
:1024000043E80012002AF8D1BFF35B8F054806F0BD
:102410004BFF0548BDE8104004F074B9941000204B
:1024200098100020F00D0020280900200020064B05
:10243000BFF35B8F014653E8000F43E80012002A08
:10244000F9D1BFF35B8F70479410002070B5FFF790
:10245000EDFF0E4C0E4E0546B44215D90D490E48FF
:102460004FF4037206F002F90A484FF4037106F0C4
:10247000F4F863685B792BB123685B6813B1294674
:10248000204698471034E7E7F3D370BDAC960000C0
:10249000BC960000129E00002C99000010B5044C60
:1024A00004492046FFF710FA034B1C6010BD00BF23
:1024B000E80800200897000088100020134A1448FC
:1024C000002310B51370134A1360134A4FF40041F0
:1024D0001360FFF76BFFFFF7E1FF104B1049184641
:1024E0008B4211D90F49104840F2271206F0BEF86E
:1024F0000C4840F2271106F0B0F81A1A5C68121165
:10250000013222711033EBE7F7D310BD75120020B2
:102510007F8900009410002098100020AC960000E5
:10252000BC960000129E00002C990000014600227B
:1025300001480023FFF7F6B9E80800200148FFF73B
:10254000E7BA00BFE8080020024B01461868FFF711
:1025500055BB00BF881000200148FFF7AFBB00BF8C
:10256000E808002070B52F4B1878002859D0FFF7E5
:10257000E5FF0546002840D12B4B2C4C1B68002B57
:1025800019DD06F083FE4FF47A72A0FB020302FB12
:102590000131C30BD4E9002043EA41439B1A4FEABF
:1025A000D13140F2E93261EB0001934271F1000157
:1025B00001D3FFF74BFFD4E9003213F57A7342F1F0
:1025C0000002C4E90032BDE87040FFF7C5BF636890
:1025D0005B7923B1236829461B682046984710344D
:1025E000B4420DD9124913484FF4007206F03EF878
:1025F0000F484FF4007106F030F80F4C0F4EEFE724
:10260000E5D32846FFF7A0FFBFF35B8F0C4B53E8E1
:10261000001F013943E80012002AF8D1BFF35B8F95
:10262000AAE770BD7412002094100020E80D00206D
:10263000129E00002C990000AC960000BC96000091
:102640009810002070B5134D297809BB0120FFF7C1
:1026500039FE114C114EB44213D91149114840F2C0
:10266000C51206F003F80E4840F2C51105F0F5FF5B
:1026700063685B791BB1236820469B6898471034D8
:10268000E9E7F5D3FFF76EFF0028FBD101232B709C
:1026900070BD00BF75120020AC960000BC96000013
:1026A000129E00002C9900002DE9F0472D4B2E4F73
:1026B000FB1A1B090AD12D492D4840F2A93205F019
:1026C000D5FF40F2A931294805F0C7FF002108468F
:1026D000FFF7F8FD044650B340F267684FF0000979
:1026E00006F0A0FE234B244A1B58136033B1234B42
:1026F0001B68092B02DD224804F004F8DFF880A0F3
:10270000002544B12046FFF7ABFD044618B94FF051
:10271000FF384FF0FF39FFF725FF064628B95DB9AE
:1027200042464B46504604F051F83546E9E74FF033
:10273000FF384FF0FF39D3E70A4D08E0F0D22B689D
:102740009B691BB100221146284698471035BD42AF
:10275000F4D90649064840F29D3205F087FF40F261
:102760009D31B0E7AC960000BC960000129E0000C0
:102770002C99000008000000901000209810002004
:102780002809002013B5264806F0FBF8254B1B78D6
:102790005BB3EFF31184202383F31288BFF36F8FB1
:1027A000214805F073F840B920492148882205F0F6
:1027B0005DFF88211D4805F050FF1B4805F08AF891
:1027C000FFF7D0FE184805F06FF840B917491848D0
:1027D0004FF49A7205F04AFF4FF49A71EAE784F3D6
:1027E0001188BFF36F8F02B010BD124B1B68002B16
:1027F000F9D050B900220023CDE900230E484FF450
:102800000042002305F080FBEDE70928EBD10A48E0
:1028100006F04AFD094802B0BDE8104003F072BF5F
:1028200098100020751200208C100020929D00004E
:102830002C99000090100020F00D002028090020A5
:1028400010B5064B1B68044698472146A060044813
:10285000FFF718F9BDE81040FFF794BF58080020B3
:10286000E8080020044A054B9B1AB1EBD30F34BF94
:1028700052F831000020704764960000AC960000CA
:102880002DE9F04F8FB004AFC1F34A28B8600D4670
:1028900091467B600C0DB8F1000F67D0002607F160
:1028A00014034FF0040B4FF00A0AC7F80C80C7E975
:1028B00007667E620193CDF808B0CDF800A007F15D
:1028C0001C03F96832464846FEF7B4FDB0F5006FC8
:1028D00003461CD36C468AB0D9F8041004AB2C48CC
:1028E000C3E9050140F2FF71D9611A464FF4007146
:1028F0001984284B42F8103F274833464FF41251B1
:10290000FFF7BEFFA5462C37BD46BDE8F08FC0F3EC
:102910000A0804F11700184420F0070080083B6003
:10292000FFF704FE68F35325044638B33B681B4A9F
:10293000C7E9083600F1100107F11403F961CDE988
:1029400000A3CDF808B0F96807F11C034846FEF76C
:1029500071FD002812DA124912484FF4A37205F0F3
:1029600085FE0F484FF4A37105F077FE04F11700C0
:1029700020F007008008FFF7D9FD044668F35325CF
:102980007B68B9682A46204606F03BF8BBE700BFE3
:102990004C9E0000040000017C960000D5890000D8
:1029A0008B9E00002C9900002DE9F04F87B0DDE9E7
:1029B0001279DDE9106A04460391934698461FB3E5
:1029C000CDF800903B46524610210020CDF81490DF
:1029D000FEF734FB051E0ADA2549264840F2651247
:1029E00005F044FE40F26511214805F036FEB5F5CC
:1029F000006F0ADB204A214840F2FF73022107B032
:102A0000BDE8F04F06F056B83D4606F117002844E1
:102A100020F0070004F007048008FFF787FD0BF0A3
:102A2000070BE40044EA8B1444EA452444EA0654C4
:102A3000064698B197B1CDF800903B4652462946DC
:102A40001030FEF7FBFA002808DA094909484FF46C
:102A5000C47205F00BFE4FF4C471C5E703994346F9
:102A60002246304607B0BDE8F04F05F0CABF00BFB0
:102A70008B9E00002C990000B79E00007C96000001
:102A8000406820B1034BC01A40F3CF0070474FF0AD
:102A9000FF307047649600000EB403B503AB0146E7
:102AA00053F8042B0448019301F068F902B05DF873
:102AB00004EB03B0704700BFD92A0000CA0605D452
:102AC0008B064CBF02490349FFF7E6BF704700BFC2
:102AD000F09E0000EF9E000038B54B681A68CB6886
:102AE0009A4205460C4602D1084605F0FBFF636892
:102AF000BFF35B8F53E8002F511C43E80010002800
:102B0000F8D1BFF35B8FA3689D5463681A68E368CC
:102B10009A4208D905490648722205F0A7FD0348E4
:102B2000722105F09AFD002038BD00BFF29E000022
:102B30002C9900002DE9F04F89B09B46149B069319
:102B40009DF84CA0159B0593169B179E0493044675
:102B50000D469046BAF1000F00F0AC80BAF1040FB8
:102B60000AD9A249A24840F2462205F07FFD40F270
:102B700046219E4805F071FD06F48073079305F029
:102B80001EFF06F00209024600283FD09949204660
:102B9000FFF782FF0746B9F1000F08D016F0440F87
:102BA00036D195492A462046FFF776FF074406F0BE
:102BB000010353B1914B924953F82A20914B20467F
:102BC000002A08BF1A46FFF767FF06F48073002B40
:102BD0004AD006F00803002B64D1B8F1000F67D08B
:102BE000894942462046FFF757FF0546069B3D446C
:102BF000002B6ED1049B002B40F08280F30700F184
:102C0000EF8031462046FFF759FFE3E00746C2E771
:102C10007E4B18680028C9D07D4B4FF47A791B6829
:102C2000B5FBF3F54FF46163B5FBF0F100FB115513
:102C300009FB05F54FF03C0CB1FBF3F203FB12115D
:102C4000B5FBF0FEB1FBFCF300FB1E550CFB1311B2
:102C500009FB05F50091B5FBF0F56E49CDE901E5FD
:102C60002046FFF719FFA1E706F00803EBB16A4B16
:102C70006A4953F82A202046FFF70EFF0546B8F1AF
:102C8000000F05D0604942462046FFF705FF054486
:102C9000BBF1000FAAD062495A462046FFF7FCFE5E
:102CA0000544A3E74FF0000BE1E706F00805E6E76F
:102CB00045469BE7BBF1010F069B06D1D3B9049BA8
:102CC000002B00F0878000251AE0002BF7D0554834
:102CD00011E05548069B5549224605F059FC00284D
:102CE0000BDA424942484FF4287205F0BFFC4FF41A
:102CF00028713EE74C485546ECE7049B002B65D015
:102D0000DFF82C81DFF82C91049F3146102F2046EC
:102D100028BF1027FFF7D2FE4FF0000B5D4542DCC5
:102D2000059B49461A782046FFF7B6FE4FF0010B87
:102D30001BF0070F03D141462046FFF7ADFE5F456C
:102D400038D9059B494613F80B202046FFF7A4FE0F
:102D50000BF1010BBBF1100FEAD1374920464FF0C0
:102D6000000BFFF799FE5A46059B9A5CA2F12001E1
:102D70005F2928BF2E2231492046FFF78DFE0BF137
:102D8000010BBBF1100F1AD01BF0070F03D1414606
:102D90002046FFF781FE5F455A46E5D8414620466A
:102DA000FFF77AFEEBE741462046FFF775FE0BF191
:102DB000010BB3E722492046FFF76EFEC8E7059BEB
:102DC0003B440593049BDB1B04939DD1BAF1000F98
:102DD0007FF414AF204609B0BDE8F04F05F082BE85
:102DE000084A07492046FFF757FE0AE7F29E00000F
:102DF0002C990000269F00002A9F00002C970000BD
:102E00004F9F0000219F0000529F0000A41000204F
:102E1000A0100020339F000040970000569F000044
:102E20005C9F0000FF8A0000D92A00007D3D000061
:102E3000699F0000619F00006B9F00006D9F000074
:102E4000679F000073B542F20F738B4228BF0B4699
:102E500005680F4A04460521684605F0B1F8636825
:102E60000C495B6806460B22284605F02DFE636878
:102E70003246694628465B6805F026FE63680649C7
:102E80005B681B22284605F01FFE02B070BD00BF24
:102E9000D6A000008C9F0000709F0000074A002110
:102EA0000123904206D8064A01B901231360054B5D
:102EB0001860704740085B000121F2E740420F00B4
:102EC000A0100020A4100020014B01221A707047AE
:102ED00076120020014B002019607047BC100020C2
:102EE0000148FFF7AFBF00BF7097000010B5064B59
:102EF00018680C46FFF754FA21460346BDE8104017
:102F000002480F22184700BFBC1000207097000035
:102F1000F8B5094D094B0A4ED5E9004701221A7050
:102F20000CB92C60F8BD214630463A4600F01EF838
:102F3000241A0644F4E700BFB010002077120020E6
:102F40007812002010B9074B18707047064B1B7899
:102F50001BB141F2883006F01FB9A420002104F013
:102F60004BBA00BF76120020771200202DE9F047FF
:102F7000DFF878901E4F80460E46042499F80050E2
:102F8000A5B906F0FCF8324682464146284603F0D1
:102F900015F90546504606F0FAF8E5B101233B70F5
:102FA00099F8003073B93046BDE8F08732464146A3
:102FB000002003F003F90546EFE72046FFF7C2FFC4
:102FC000651E2C46002003F03DF90028EBD03B782D
:102FD000002BF2D1E7E73B78002BE4D0013C204600
:102FE000FFF7B0FF3B78002BC8D1DCE77712002059
:102FF00076120020014B036000207047809700008C
:1030000008B5044805F01CFBBDE80840024805F07F
:1030100017BB00BFC89F0000FD9F000008B5034814
:10302000034A0021121A05F0ADFD08BD3809002041
:10303000901200200748084A084908B5121A05F0FE
:10304000A3FD0748074A0849BDE80840121A05F0E1
:103050009BBD00BFC00400203809002028AB000041
:10306000B8040020C004002020AB00002DE9F04788
:10307000064600AF0C46002936D0E9468AB0D1E9B1
:103080000012A3686D462148A8464FF0050AC5E91D
:103090000501C5E9072348F810AF1D484246002343
:1030A0004FF42151FFF7ECFBCD46D4E903126369DD
:1030B000AD461848C5F810A0C5E90501C5E90723C4
:1030C0001348002342464FF42151FFF7D9FBCD4668
:1030D000E369114A0E48012105F0ECFCA3690F4A8F
:1030E0000B48012105F0E6FC012E07D1EFF3058323
:1030F0000B4A0748103B314605F0DCFC21463046C0
:1031000003F0F4F8BD46BDE8F08700BF2BA0000037
:10311000949600005AA0000089A0000098A000002A
:10312000C6A0000030BFFFF7FDBF00BF2DE9F04192
:103130000B4EDFF8308006EB0807CC1B0546324605
:103140000949204606F0CCF8A01942460021083C67
:1031500006F0D4F8C5F8A44007F10800BDE8F081F6
:10316000000000000400000000970000054B5A69B1
:103170009B689A421FBF044A536843F080535360D0
:10318000704700BF9811002000ED00E070B5294C99
:1031900006460D462848294905F003FDA36AD904CF
:1031A0003CD52548264905F0FCFC1720A36A1A05E2
:1031B00004D52148234905F0F4FC18201D4CA36ACE
:1031C0009B0512D51C48204905F0EBFCA36BA26AB5
:1031D000100409D51D4A1848012105F06BFC1EB1E9
:1031E000A36A23F40043A3621920124CA36A590571
:1031F00004D51148164905F0D4FC1A20A36ADA0553
:103200000ED50D48134905F0CCFC1B20094A936AE2
:1032100043F47F43936200232B7070BD1620C5E7F3
:10322000A36A9B04F2D504480B4905F0BAFC1C20A4
:10323000ECE700BF00ED00E094960000D9A000008C
:10324000EFA0000000A1000013A100002CA10000CD
:1032500041A100005CA1000074A1000010B5204C49
:103260002049214805F09DFCA36A990136D51E48E6
:103270001E4905F096FC1E20A36ADA0104D51A48FF
:103280001B4905F08EFC1F20154CA36A1B0304D5B7
:103290001548184905F085FC2120A36A590304D577
:1032A0001148154905F07DFC22200D4CA36A9A03B4
:1032B00004D50D48114905F074FC2320A36ADB03F3
:1032C00004D509480E4905F06CFC2420044A936A91
:1032D0006FEA03436FEA1343936210BD1D20CBE7EF
:1032E00000ED00E0A3A1000094960000BBA1000047
:1032F000CEA10000E8A1000006A200002BA2000061
:1033000045A200002DE9F8433D4D804689463D48E1
:103310003D49174605F045FCAB6ADA0627D53B491F
:10332000384805F03EFC1124AB6A1B0704D5384928
:10333000344805F036FC1224314DAB6A9E0718D58F
:103340003449304805F02DFC6E6BAB6A1C0646D53F
:10335000314A2C483346012105F0ACFBB9F1000F8E
:1033600003D0AB6A23F08003AB62132403E0102484
:10337000DAE76FF01506224DAB6AD80704D5274966
:10338000204805F00EFC1424AB6A990604D52449A4
:103390001C4805F006FC1524194DAB6ADA0602D468
:1033A000AB6A9B070AD56B68180507D541463046BE
:1033B00000F0BAFAB0B180F309880224104B9A6A7F
:1033C000920642BF5A6A22F400525A629A6A42F046
:1033D000FF029A6200233B702046BDE8F8836FF03D
:1033E0001506C2E7AB6AD906E8D50E490E4840F289
:1033F000271205F03BF90B4840F2271105F02DF993
:1034000000ED00E09496000070A2000086A200008B
:1034100000A10000B9A20000D1A20000E7A20000B4
:1034200074A1000006A300002C990000F0B5734BB6
:103430008BB00446586800AFC0F30803002686F33B
:103440001188BFF36F8F02F07F45B5F17F4F07D131
:1034500002F00C05082D0ED169496A4805F0A1FB60
:1034600069496A4840F2144205F000F940F21441FB
:10347000654805F0F2F815074CBF0C460126002CF4
:10348000EED00022FA71DA1E092A00F29680DFE8F7
:1034900002F0058C8F779494949494925C495948E7
:1034A000564D05F07EFB0023FB71EB6A9A0705D5AC
:1034B0005849544805F075FB002329E0EB6A002BBE
:1034C00001DA5549F5E7EB6A5B0065D553494D488C
:1034D00005F067FB6B69A26943F480736B61BFF30E
:1034E0004F8FBFF36F8F6B6932F8022C23F4807318
:1034F0006B61BFF34F8FBFF36F8F4DF602739A422C
:1035000027D12368464A3F48012105F0D3FA2368B2
:10351000FA79DAB907F1080504F1200C206861682E
:103520002A4603C2083464451546F7D17A6A002E4C
:103530005FD0C2F3080121B96FEA52226FEA42223A
:103540007A6207F108011846FFF790FD2C37BD4657
:10355000F0BDAB6ADBB233B1FA1D01212046FFF7A3
:10356000D1FE0346D4E7AB6A13F47F4F04D0F91DB4
:103570000120FFF70BFEF4E7AB6AB3F5803F02D3FF
:10358000FFF76CFEEDE72049204840F2ED2205F000
:103590006DF840F2ED216BE71B491C484FF43C727B
:1035A00005F064F84FF43C7162E7FA1D0021D5E79D
:1035B000F91D0020DDE71B497BE71B4A1B4910F47E
:1035C000F87F6D468AB018BF11466A46103BD3613A
:1035D00017484FF400731384164BC2E9050142F8F3
:1035E000103F084800234FF41151FFF749F9AD4649
:1035F00062E722F4FF7222F00102A1E700ED00E091
:1036000066A300009496000006A300002C99000019
:1036100091A30000A8A30000C9A30000D7A3000045
:10362000F6A3000012A400004DA3000038A3000080
:1036300036A4000004000001044B5A6942F0100255
:103640005A615A6922F008025A61704700ED00E0A1
:10365000EFF30880EFF3098101B57246FFF7E6FE4C
:1036600001BD00BF002080F31488BFF36F8F1148A5
:1036700080F3088800201049087001F0E5FB002065
:103680000E490860BFF34F8F00F02EF8202080F322
:1036900011880B484FF40461401880F30988EFF358
:1036A00014800221084380F31488BFF36F8F00F069
:1036B0000BF90000C02800208C12002094ED00E0DF
:1036C000001B00200749D1F890200023C2F30722F5
:1036D0001846934200DB7047C1F89830C1F8A0004B
:1036E0000133F6E700ED00E008B572B6002383F37E
:1036F0001388FFF7E7FF144B4FF0FF32C3F8802029
:10370000C3F88420C3F88820C3F88C20C3F8902025
:10371000C3F89420C3F89820C3F89C20C3F88021F4
:10372000C3F88421C3F88821C3F88C21C3F8902101
:10373000C3F89421C3F89821C3F89C2162B6BFF363
:103740004F8FBFF36F8F08BD00E100E0084B9B680F
:1037500083420BD1EFF3058343B1064B5A6842F025
:1037600080525A605A6A22F400425A6203F0CCBE78
:103770009811002000ED00E015498A684FF03000F4
:103780001044EFF3098C80E8F01F202080F31288AA
:10379000BFF36F8F0F4F4FF000664A698A603E603B
:1037A000D2F8A4000C4C2060D2F8A8000023C2F884
:1037B000A83080F3118804B5104600F01DF9BDE86B
:1037C000044002F1300090E8F01F8CF30988704744
:1037D0009811002004ED00E0C01000201EF0040F3E
:1037E0000CBFEFF30880EFF30980816911F8021C28
:1037F0000229FFD001B5724605F0C8F901BD00BF2E
:1038000040B2002807DB044A4109012300F01F00F1
:10381000834042F82130704700E100E040B20028C8
:103820000CDB4309064900F01F00203301228240CF
:1038300041F82320BFF34F8FBFF36F8F704700BF56
:1038400000E100E0054B420900F01F0053F8222080
:10385000012303FA00F01040704700BF00E100E0D0
:103860000131072908B508D90D490E486B2204F02B
:10387000FDFE0B486B2104F0F0FE40B20028ACBF07
:1038800000F16040084B4FEA4111B8BF00F00F0053
:10389000C9B2AABF00F56140195480F8001308BDF1
:1038A00049A400002C99000014ED00E0044B054AE7
:1038B00023F07F039360BFF34F8FBFF36F8F704789
:1038C0000000000000ED00E008B5FFF7EFFF074A39
:1038D000D2F8883023F47003C2F88830FFF79EFBDB
:1038E000FFF7A8FB00F05EF802F04EFE00ED00E0EE
:1038F00042F8203C009B42F81C3C0A49019B42F8DC
:10390000183C029B42F8143C21F001014FF08073F7
:1039100042F8043C42F8081C0023203A0265C0F833
:10392000A8307047951800000A4A0346906878B19D
:1039300013F1160FD0F8940005D0A0F140029A427E
:1039400005D8834203D2814228BF0020704700205F
:10395000704700BF9811002008B515460C4A0D4B62
:103960009060D0F8A4201A600E4600F045F82C466E
:1039700086F309880020044B984720460021002246
:103980000023024C20470000B98B0000951800006E
:1039900098110020C0100020014B10221A617047BE
:1039A00000ED00E0044800232021C2180133272B3A
:1039B00082F80013F9D1704700E100E008B5EFF399
:1039C0000583064A103B02EBC30152F833004968F5
:1039D0008847BDE80840FFF7C9BB00BFE09400007E
:1039E000024B034A0348012100F08CB8000001207B
:1039F0000000002080970000D0F89420054B403A4A
:103A00001A60054A4021C3E901121846012100F05D
:103A100095B800BFC410002000000B1508B5034680
:103A20001048D0F89020C2F30722013A934207D9F8
:103A30000D480E4A012105F03DF86FF0150008BD54
:103A4000C0F898300A6822F01F021A4342F01002B0
:103A5000C0F89C208A6842F00102C0F8A0201846F5
:103A6000EDE700BF00ED00E08C96000084A40000AC
:103A7000F0B50E4685B01F4604460025B5420DDA66
:103A8000606810B397B1431E18420AD0104A11481B
:103A90002B46012105F00EF86FF01502104605B017
:103AA000F0BD1F28F2D921680B42EFD123680193A2
:103AB00005F0A5F8A36801A90343D0B20393FFF76B
:103AC000ADFF10F1160FE7D0421C01350C34D5E7DD
:103AD000AAA400008C960000044B0522C3F8942091
:103AE000BFF34F8FBFF36F8F704700BF00ED00E053
:103AF000BFF35F8F024B0022C3F89420704700BFD2
:103B000000ED00E010B50A4C01232278FFF7B0FF6A
:103B1000207016300AD1074907484FF4BF7204F0ED
:103B2000A5FD04484FF4BF7104F097FD10BD00BF20
:103B300088120020CDA400002C99000008B5114A7D
:103B400000231278FFF794FF10F1160F08D00E4AE9
:103B50000021D2F89030C3F3072398420BDB08BD55
:103B60000A490B4840F29D1204F080FD074840F2DC
:103B70009D1104F072FDC2F89800C2F8A010013047
:103B8000E7E700BF8812002000ED00E0CDA40000B0
:103B90002C9900002DE9F04F70487149D0F8903011
:103BA0000D68C3F307239D4285B00AD96D496E485D
:103BB00040F2F71204F05AFD40F2F711694804F0A0
:103BC0004CFDFFF795FF49680022954201F10C0179
:103BD00029D1664C664F25706846FFF70BFADFF86F
:103BE0009481DFF8949106460025AE422ED12378C9
:103BF0005A490020D1F89020C2F307229342C0F224
:103C0000A380FFF769FFD1F89030C3F30723082B97
:103C100000F0A0805349544840F2692204F026FD88
:103C200040F26921CAE7C0F8982051F80C3C23F013
:103C30001F03134343F01003C0F89C3051F8043CB9
:103C400043F00103C0F8A0300132BEE7009A02EB56
:103C500005132901D3F80CA00AEA0700B0F5000FFC
:103C600058D00AD8B0F5001F34D0B0F5800F46D038
:103C7000B0F5801F12D00135B7E7B0F1807F54D086
:103C8000B0F1007FF7D19868D3F804A0525804F03F
:103C9000B6FFCDE901A240F480200BE09868D3F88C
:103CA00004A0525804F0ABFFCDE901A240F08850C7
:103CB00040F430200390207801A9FFF7AFFE0028E0
:103CC0003EDA2849284840F2212204F0CFFC40F295
:103CD000212173E79868D3F804B0525804F08FFF9D
:103CE0001AF0010F40EA0800CDE901B20390E2D0DA
:103CF0001C491D48832204F0B9FC83215EE79868C3
:103D0000D3F804A0525804F07AFFCDE901A240EAAA
:103D10000900CFE79868D3F804A0525804F06FFF69
:103D2000CDE901A240F08270C4E79868D3F804A0FE
:103D3000525804F064FFCDE901A240F08870B9E761
:103D400023780133237096E7C1F89830C1F8A000BA
:103D500001334FE7002005B0BDE8F08F00ED00E033
:103D60008C970000CDA400002C9900008812002040
:103D70000000F0FF0000081100000206F0B587B057
:103D800007460E4614460021102268461D4605F0DF
:103D9000B5FA02238DF802302A46054B01932146DD
:103DA0006846CDE9047604F037F907B0F0BD00BFEE
:103DB0001F8C000008B50649064821F00701C1F133
:103DC000005202F58032FDF7C7F8002008BD00BFA1
:103DD00007290020D0100020044A0123C2F84035F2
:103DE0004FF080420020C2F87835704700E0014073
:103DF00048B1054B054A1B68B3FBF2F35843044B2B
:103E000043F0010318477047CC08002040420F00E0
:103E10000097000008B50448044A3F23C0E9002386
:103E200001F04EF9002008BDDC100020FFFF0F005C
:103E300037B50C460A490B4A411A402300934911F1
:103E400005462346084804F0F0FE011E05DA284620
:103E5000234603B0BDE83040184703B030BD00BF73
:103E6000F8100020938C000080940000C9B2012952
:103E700008B508D9084909487E2204F0F7FB06482E
:103E80007E2104F0EAFB03690C2201FB0233986CEB
:103E900000F0070008BD00BF0FA500002C9900002E
:103EA00070B5C9B2012903690AD91849184840F206
:103EB000D71204F0DBFB154840F2D71104F0CDFB1C
:103EC000EFF31185202484F31288BFF36F8F0C2643
:103ED00006FB0134A46C14F0C00408D0A24206D042
:103EE00085F31188BFF36F8F4FF0FF3070BD7143C2
:103EF0000B4401229A6485F31188BFF36F8F4368E6
:103F00000B445B6898470020F0E700BF0FA5000056
:103F10002C99000070B50D460649411A0446491116
:103F200005484022FFF7BCFF2B4601462046BDE86E
:103F300070401847F8100020809400000022F8B567
:103F4000012105461046FFF78BFC104801F040F9AF
:103F50000446B8B901F05CF92F690D49384604F000
:103F6000D7FC031E09DB0126BE642D69084905F153
:103F7000200004F0CDFC031E02DA1C462046F8BDEA
:103F80006E65FBE76FF00404F8E700BF69400000CE
:103F9000AC9700001FB500220123CDE90223094A96
:103FA000CDF800D06B46CDF804D004F06BFE0028AD
:103FB00005DB4FF480420023684602F007FC05B0A1
:103FC0005DF804FB9F8C000010B5064C23782BB9DC
:103FD0004FF4A57005F0E0F801232370BDE8104010
:103FE00001F056BA8912002010B5EFF31184202396
:103FF00083F31288BFF36F8F074A136823F002011F
:10400000DB07116002D4012001F048F984F3118824
:10401000BFF36F8F10BD00BF5011002030B4104BA4
:104020000C2202FB003301460020D3E91052186431
:10403000EFF31180202484F31288BFF36F8F9C6C00
:1040400004F0C00444F002049C6480F31188BFF3C0
:104050006F8F1DB12B46034830BC184730BC7047EA
:10406000F810002080940000012808B506D003282D
:1040700008D090B90E4B9B6C5B0717D1BDE8084088
:10408000FFF7CCBF0B490C4840F2FE2204F0EEFAD9
:1040900040F2FE21074804F0E0FA064906484FF4D2
:1040A000427204F0E3FA4FF44271F3E708BD00BF37
:1040B000F81000200FA500002C99000010B4EFF3B9
:1040C0001182202383F31288BFF36F8F1748016892
:1040D00041F002040460C80707D482F31188BFF3DB
:1040E0006F8F012010BC01F0B1B84FF08041D1F8C2
:1040F0000C04D1F80C14C907EFD5EFF3118083F34A
:104100001288BFF36F8F0A498B6C03F0C00343F032
:1041100002038B6480F31188BFF36F8F82F31188E1
:10412000BFF36F8F002010BCFFF778BF5011002045
:10413000F8100020024BC0B203EB4010704700BFE4
:10414000F81000202DE9F0414349BFF35B8F06468C
:10415000012251E8003F41E800200028F9D1BFF3D7
:104160005B8F9BB93D493E484B60CB608A60FDF751
:10417000A9FF00280ADA3B493B4840F2AA2204F092
:1041800075FA40F2AA21374804F067FA76B3731E35
:10419000012B58D8012E07D14FF08043D3F81C349F
:1041A00003F00303012B21D005F019F80546F8B9F7
:1041B0002E4B1B78E3B14FF080430222C3F8082353
:1041C0000746DFF8AC804FF08044D4F81824D4F8C8
:1041D0001834D20315D503F00303012B01D0012EAF
:1041E0000FD155B387F31188BFF36F8FBDE8F0810E
:1041F000EFF31187202383F31288BFF36F8F01251C
:10420000DFE7ADB1384604F0EBFCD4F81835002BED
:10421000DBD1D4F80421002AD7D0C4F80431D4F873
:1042200004310123C4F81835C8F88031A360CCE705
:104230000021212003F0E0F8E7E74FF0804302225D
:10424000C3F80423D2E7074907484FF42F7204F05C
:104250000DFA4FF42F7196E7F4100020E4100020BF
:10426000181100200FA500002C9900008C120020CE
:1042700000E100E010B5036941B91C491C484F2218
:1042800004F0F4F94F21194804F0E7F9486830B90F
:1042900016491748502204F0E9F95021F3E758680D
:1042A000F8B1884219D19C6808685860A14200D1D1
:1042B0009860002008602AB15A680A609A685960BC
:1042C00002B99960002010E0814206D108682060A0
:1042D00098688142EDD19C60EBE7044600680028B5
:1042E000F2D1002AE8D16FF0150010BD75A50000CD
:1042F0002C99000008B50268530904D14FF0FF3330
:10430000D340DB070AD4074907484FF4747204F01E
:10431000ADF904484FF4747104F09FF94FF0A040D8
:1043200008BD00BFB1A500002C99000070B544681D
:10433000207C01F01F0545EA4015A06886B00028E2
:104340006CD0B2F5001F04D1294601F0BDFC00205D
:1043500049E001A80026B2F5800F0196466031D1F0
:10436000B3F1007F14BF052304238DF8043000232C
:10437000CDE904030393E368CB40D90735D4B2F108
:10438000A07F32D168460095FFF7B4FF05F5E073D2
:1043900050F82330DB0728D4A0686A46294601F08C
:1043A00051FB163019D0CDF808D0A06803AA2946D1
:1043B00001F006FA002816DBA0680122294601F068
:1043C0000DFCC4E7B3F1C06F05D0B3F1007F14BF9B
:1043D00001230223C9E70323C7E7A068694601F068
:1043E000E1FB0028DFDA06B070BDA0686A46294606
:1043F00001F028FB0028D8D19DF80010A06801F03A
:10440000B9FB0028D1D00749074840F2E51204F073
:104410002DF9044840F2E51104F01FF96FF0850012
:10442000E1E700BFE4A500002C990000430970B546
:1044300007D1104B596821B101250C680E4E8540FB
:1044400001B970BD8A682A400CD04B6843B90B494A
:104450000B48742204F00AF90848742104F0FDF8AE
:10446000304698471CB1236821461C46E8E723469E
:10447000FAE700BF54110020A094000075A50000C9
:104480002C9900002DE9F043476840F206363B7C4A
:10449000D00687B001F01F0502EA060645EA43157B
:1044A00054BFC2F340130323B6F5837F14468DF83F
:1044B000033044D00DD8062E16D005D8A6B1022E52
:1044C0003FD06FF0150037E0B6F5807FF9D10126B7
:1044D0000AE040F20222964235D0B6F5407F34D051
:1044E000B6F5007FEDD102260123220303FA01F184
:1044F0002DD57B68C3F80815B86870BB03A8039571
:10450000FFF7F8FE84F4803300EB8500C3F300432B
:10451000C4F34044D0F8002744EA43049DF8033034
:1045200022F4E16244EA830422F0070244EA06230B
:104530001343C0F80037002007B0BDE8F08307261A
:10454000D2E70426D0E70526CEE70326CCE76303AF
:1045500044BF7B68C3F80C15CEE70DF10202294673
:1045600001F070FA14F4403F804616D1B86829462D
:1045700001F0EAFAB8F1000FDDD19DF80210B86839
:1045800001F0F8FA0028D6D01D491E48F42204F0A4
:104590006DF81B48F42104F060F84FF0000901ABFE
:1045A000CDE90199CDE90439CDF80C90B86803AA9A
:1045B000294601F005F94845BDDB14F4003314D059
:1045C00084F480349DF803308DF80E30C4F3004439
:1045D0008DF80C608DF80D40B8684B4603AA29464B
:1045E00001F09EF90028C5DAA5E7CDE904330DF105
:1045F00003030393B86803AA294601F0E1F8F1E741
:10460000E4A500002C99000038B54568A86890B171
:1046100001F082FA014670B9A86801F03FFA044639
:1046200058B902460649A86801F0F8F92246052162
:104630000620FFF715F9002038BD6FF00400FBE7F6
:104640002D44000008B50268530904D14FF0FF3330
:10465000D340DB070AD4074907484FF4747204F0CB
:1046600005F804484FF4747103F0F7FF4FF0A040D1
:1046700008BD00BFB1A500002C9900002DE9F04F46
:10468000DFF854B185B01546824600EB810840F250
:10469000FF19D04503D1002005B0BDE8F08FDAF84E
:1046A00000305A04C3F3C321C3F3080400F18E8021
:1046B0004A4A1B0E575C4C4508BF4FF0FF34192B7C
:1046C00000F28780DFE803F00D141A1D20261D85F7
:1046D000858585356185858585858585858564792B
:1046E0007C7FC5F80C45631C5CD10AF1040AD0E755
:1046F000C5F81445661CF8D000265CE0C5F80845EE
:10470000F1E7C5F81045F5E7601CC5F80845ECD0A1
:10471000002604E0611CC5F80C45E6D0012603A87C
:104720000394FFF78FFF012101FA04F3C0F80C3561
:1047300008E0C5F80845002FDCD1631CD5D0002661
:1047400031460627DAF80030019303F400400028D0
:1047500018BF002103A8009118BF01260394FFF79A
:1047600071FF019B009900EB8400C3F3412CD0F84A
:1047700000473B0243EA8C030B4304EA0B04234348
:1047800043EA4603C0F80037AFE7C5F80C45D2E767
:10479000C5F86045621CDAF80030A6D0C3F30043C8
:1047A000002BBBD003A80394FFF74CFF012606FAA9
:1047B00004F3C0F808353146C4E7C5F86445E9E7B5
:1047C000C5F86845E6E7C5F86C45E3E76FF0150006
:1047D00062E76FF085005FE7F0F8FCFF1EA60000BF
:1047E0002DE9F041044647680D4604F0F8FC4FF00F
:1047F000200888B9264B1B7873B16426606804F0E2
:10480000B1FAF0B9012004F005FB013EF6D1002118
:10481000212002F0F1FDF0E7EFF31186314688F335
:104820001288BFF36F8F606804F09CFAA8B986F312
:104830001188BFF36F8FEFE786F31188BFF36F8F97
:10484000E5E7EFF31186314688F31288BFF36F8FE7
:10485000606804F087FA0028EED0BB691D706368B9
:10486000BA691B680020C3F844250122C3F8482513
:10487000C3F82001D3F82041C3F85801D3F85801F8
:104880009A6081F31188BFF36F8FBDE8F08100BF9C
:104890008C1200202DE9F041002205460121022062
:1048A000FEF7DEFF0220FEF7ABFF6C680121E06837
:1048B00004F089FA6B681A682369C2F82435637DAD
:1048C000217D0B43C2F86C356F68D7E9004313F0C4
:1048D000010346D0D5F8108004F10C0108F108025C
:1048E00004F5907004F0D3FA061E07DA2A4A2B4822
:1048F000012104F0D6F83046BDE8F08198F80800B0
:1049000000F04AFC0823C4F80035BB69C4F84435FC
:104910000023C4F848350123A360D4F85831002B94
:10492000FBD00026C4F800656B683146D86804F0F7
:104930004AFA6D6831462C68E86804F044FA0823A6
:10494000C4F800352A7A52B9EB69C4F8343501232A
:10495000C4F83835C4F81021D4F81021236000269B
:10496000C9E70822C4F80025BA69C4F84425C4F888
:1049700048350123A360D4F82031002BFBD000235D
:10498000C4F82031D4F820310123E3604FF4807360
:10499000C4F80433C1E700BF26A60000A4960000B7
:1049A00070B40E49D1E90034D01AC31844F10004A0
:1049B000C2F30E06C1E90034A6F58053B3F5C04F2B
:1049C00009D2074B1B685A0CDB039C19054B42F1BB
:1049D0000005C3E9004570BC03F002B9480E002091
:1049E00078110020500E0020E0B1BFF35B8F0E4B1A
:1049F00053E8001F41F0020143E80012002AF7D1FA
:104A0000BFF35B8F094A4FF40033C2F80433084AFE
:104A1000BFF35B8F1268BFF35B8F920744BF054AF9
:104A2000C2F80031704700BF74110020001001402F
:104A30006C11002000E100E00C4BBFF35B8F53E8EA
:104A4000000F20F0020243E800210029F7D1BFF354
:104A50005B8F074B4FF40032C3F80823BFF35F8F1F
:104A6000BFF36F8FC0F34000704700BF7411002088
:104A70000010014030B5144B1868410CC003BFF35F
:104A80005F8F124BD3F8043547F6FF7293420AD179
:104A90000F4AD2E90045844275EB010209D3C018E0
:104AA00041F1000130BD181841F10001B3F5006F6C
:104AB000F8D2074BD3E90023904271EB0303F1D204
:104AC00010F50040ECE700BF781100200010014015
:104AD000500E00202DE9F743374CD4F80433D903A6
:104AE00019D540230022990810290CD1D4F840315F
:104AF000002B41D00023C4F84031D4F840314FF4AA
:104B000080324423EFE70433502BECD11AB12B4A07
:104B1000136801331360D4F804339A0329D5BFF323
:104B20005B8F274B53E8002F22F0020143E800106F
:104B30000028F7D1BFF35B8F930702D4D4F8443138
:104B4000BBB10025C4F84451D4F84431FFF792FFBB
:104B5000EFF31182202383F31288BFF36F8F194B79
:104B6000D3E90667B042B94108D282F31188BFF396
:104B70006F8F03B0BDE8F0834423B4E74FF0FF38F4
:104B80004FF0FF39C3E90689D3E904101D614FF4E2
:104B90000033C4F84833C4F84451D4F8443182F3A4
:104BA0001188BFF36F8F0029E3D0009032463B4657
:104BB00001208847DDE700BF001001407811002088
:104BC0006C110020280E00202DE9F74F0D461F46DE
:104BD000044601929DF83080FFF72EFF0090FFF70A
:104BE00049FFA04271EB05034CD2201A44F20103A5
:104BF00065EB0101984271F1000146D2324BD3E9D5
:104C000006239D4208BF944255D0304B4FF4003EDE
:104C10004FF00009C3F848E3C4F30E0CC3F8449105
:104C2000D3F84421032062466FF0020A43F6FD7B6D
:104C3000C2F30E01002908BF0122C2F30E01C3F81E
:104C40004415C3F844E3D3F80465AAEB0601114404
:104C5000C1F30E0159452ED9D3F8442162B1D3F8DE
:104C60000465A6EB0C02C2F30E02B2F5804F22D906
:104C7000C3F84491D3F84421B8F1000F05D182194B
:104C80000130D5E7B8F1000F08D06FF01504009897
:104C9000FFF7AAFE204603B0BDE8F08F0C4BBFF330
:104CA0005B8F53E8001F41F0020143E80012002A25
:104CB000F7D1BFF35B8F044B019AC3E90645C3E903
:104CC00004270024E3E700BF280E00200010014065
:104CD0006C1100207FB5284C284BC4F80833C4F869
:104CE0004833274B274A00254FF0FF304FF0FF3164
:104CF0004FF48036C4F80855C3E90201C4F80463D0
:104D0000C3E906014FF40033C4F804330121C2F8AB
:104D1000803111202A46FEF7A3FD1120FEF770FD19
:104D20000123A3602360184B03221A600021174A55
:104D300000952B4643F6FF70FFF746FF0220FFF772
:104D400001FA134A13491368134823F0010313604F
:104D500047F6FF73C4F844630DF10F02C4F8403501
:104D600004F095F8002804DB9DF80F0000F014FA19
:104D7000284604B070BD00BF0010014001000F00C4
:104D8000280E002000E100E074110020A14900007D
:104D9000701100200810014040110140421C13B561
:104DA000034643F6FF7020D08342A8BF0346012B81
:104DB0001C46B8BF0124FFF75DFE0E4BD3E900216E
:104DC000801AB0F5804F43F6FF7310D2204498420A
:104DD00028BF184680184FF00003074A009341F19E
:104DE0000001FFF7F1FE02B010BD0446E3E71846EC
:104DF000F0E700BF480E0020A149000008B5FFF70A
:104E000039FE024B1B68C01A08BD00BF480E0020C7
:104E10004FF0704393F8E02F062A09D1D3F8E83F0A
:104E2000C3F30313033B042B02D8024AD05C704740
:104E30000020704772A60000024AD2F80034002B0E
:104E4000FBD0704700E0014010B503F0D2FF40B145
:104E50004FF080538E4AD3F82433C3F30423C2F8AF
:104E60004035FFF7D5FF10B18A4B8B4A5A6703F0E4
:104E7000C0FF48B14FF080534FF08042D3F8443226
:104E8000C3F34233C2F83C35FFF7C2FF30B1834A67
:104E9000D2F8FC3023F08073C2F8FC3003F0A9FF95
:104EA00040B14FF080430022C3F80C21C3F8102119
:104EB000C3F83825FFF7ACFF20B14FF08043032241
:104EC000C3F8A025FFF7A4FF60B1754B0522C3F816
:104ED00010260122C3F888260022C3F818263F2294
:104EE000C3F814264FF08053D3F83021511C09BF6A
:104EF0004FF07043D3F8343193F8E02FD3F8E83F04
:104F000008BFC3F30313062A4DD1033B042B03D878
:104F1000644AD35C002B46D04FF08052624BD2F8EB
:104F20000414C3F82015D2F80814C3F82415D2F8D5
:104F30000C14C3F82815D2F81014C3F82C15D2F8A5
:104F40001414C3F83015D2F81814C3F83415D2F875
:104F50001C14C3F84015D2F82014C3F84415D2F835
:104F60002414C3F84815D2F82814C3F84C15D2F805
:104F70002C14C3F85015D2F83014C3F85415D2F8D5
:104F80003414C3F86015D2F83814C3F86415D2F895
:104F90003C14C3F86815D2F84014C3F86C15D2F865
:104FA0004424C3F8702503F024FF48B14FF0805328
:104FB0004FF08042D3F8583203F04F03C2F8E43E7A
:104FC00003F017FF48B14FF08043D3F80024D20715
:104FD00044BF6FF00102C3F800244FF08053D3F8B0
:104FE0003021062A26D1D3F83431033B042B02D8D2
:104FF0002E4AD35C63B12E4AD2F83C3743F4806327
:10500000C2F83C374FF08053D3F83031062B11D122
:105010004FF08053D3F83431033B042B02D8254A98
:10502000D35C3BB14FF01023D3F808224FF08043FC
:10503000C3F858254FF01023D3F80022002A03DBD1
:10504000D3F80432002B22DA1B4901234FF0102041
:10505000C1F804351524FFF7EFFEC0F80042FFF752
:10506000EBFEC0F80442FFF7E7FE0023C1F8043569
:10507000FFF7E2FEBFF34F8F0849104BCA6802F4F6
:10508000E0621343CB60BFF34F8F00BFFDE710BD5D
:105090000030014000C007400DF0ADBA00ED00E067
:1050A000005000406DA6000000C0004068A600004F
:1050B0000010004063A6000000E001400400FA0573
:1050C000014B1860704700BF7C11002010B50A4BDF
:1050D0001868144640B9094909483B2203F0C6FA4A
:1050E00006483B2103F0B9FA03F096FE0028A4BF5E
:1050F0002070002010BD00BF7C11002077A60000AA
:105100002C990000034610F4807018D1124A00F563
:10511000117152F821108B4210D001301428F6D1B1
:105120000D49002000F1A20201EBC2025268934235
:1051300004D001301428F5D16FF015007047064AED
:10514000002000F1A20152F831108B42F6D001305C
:105150001428F6D1F0E700BF00F0014010F480728F
:1051600010B505D00A4BA231002243F8312010BD02
:105170008B0003F1804303F5F833D3F81049A042C4
:1051800017BF044BC3F81029C9005A50EFE700BFFE
:1051900000F0014014F50140024A01238340C2F8A7
:1051A0000435704700F00140024A01238340C2F8F1
:1051B0000835704700F00140014B00201B6818477C
:1051C00080110020014B1B68184700BF8011002090
:1051D00010B50C4C237993B9012323710A4B20603D
:1051E000002818BF184600F0C9F850B923680748CE
:1051F000002BBDE8104008BF184600F037B96FF02B
:10520000770010BD80110020B9510000C551000089
:1052100008B50B4B1A7942B90A490B48AD2203F085
:1052200025FA0848AD2103F018FA1B683BB10020AD
:10523000FEF708FB18B9BDE80840FEF7E1BA08BD63
:1052400080110020B3A600002C99000008B5104B77
:105250001B7943B90F491048FE2203F007FAFE21DB
:105260000C4803F0FAF950B101280CD009490A485A
:1052700040F21B1203F0FAF940F21B11F0E7BDE80F
:10528000084000F005B9BDE8084000F08BB800BF49
:1052900080110020B3A600002C99000008B5114B26
:1052A0001B7953B9104911484FF4917203F0DEF99C
:1052B0004FF491710C4803F0D0F928B1012807D1BF
:1052C000BDE8084000F09AB8BDE8084000F04EB9CB
:1052D0000549064840F23F1203F0C8F940F23F1179
:1052E000E8E700BF80110020B3A600002C99000061
:1052F0004FF08053D3F83021511C09BF4FF0704359
:10530000D3F8343193F8E02FD3F8E83F08BFC3F364
:105310000313062A05D1033B042B04D8034AD05CAF
:105320007047002070470120704700BF33A700007E
:1053300038B54FF080440123C4F80833636000237C
:10534000C4F80031D4F8003142F21075D4F80C24BE
:10535000D4F80C34D20307D5DB0705D5012003F0C0
:1053600059FD013DF2D138BDFFF7C2FF0028FAD048
:10537000014B00225A71F6E78811002038B5084C1D
:1053800025794DB9012320602371FFF7B1FF08B9DA
:10539000002038BD6571FBE76FF07700F9E700BFCB
:1053A0008811002008B512490B7943B911491248F8
:1053B000772203F05BF90F48772103F04EF94FF0A5
:1053C00080430022C3F80021D3F8002101221A6093
:1053D000096811B1C3F8042308BDD3F80021002ADD
:1053E000FBD00022C3F80021D3F80031F4E700BF5E
:1053F00088110020F0A600002C99000008B5084B89
:105400001B7943B907490848892203F02FF9054859
:10541000892103F022F9BDE80840FFF789BF00BFEA
:1054200088110020F0A600002C99000010B54FF064
:105430008043D3F80423D20715D5D3F8002192B1C5
:105440000022C3F800210124D3F80021C3F8084347
:10545000FFF74EFF044B10B15A7922B95C71BDE8D9
:1054600010401B68184710BD88110020074A1379A7
:1054700043B90121106011714FF080421846C2F803
:10548000183570476FF07700704700BF901100200B
:1054900010B5324C237943B931493248E32203F045
:1054A000E5F82F48E32103F0D8F84FF08043D3F814
:1054B0001814D3F81824C90337D502F00303012BBD
:1054C00003D00BB103F039FD00234FF08042C2F846
:1054D00018350023C2F80431D2F804314FF080535C
:1054E000D3F83021511C09BF4FF07043D3F8343149
:1054F00093F8E02FD3F8E83F08BFC3F30313062A5D
:1055000008D1033B042B02D8174AD35C13B18A207D
:1055100003F080FC4FF0804301229A60226872B948
:10552000D3F80421002AFBD011E0D3F81424D207C9
:10553000CAD5D3F81C249007C4D422681AB1022219
:10554000C3F8042310BDD3F80421002AFBD00022A5
:10555000C3F80421D3F80431F4E700BF9011002010
:1055600038A700002C9900007BA7000008B5094B64
:105570001B7953B9084909484FF4907203F076F843
:1055800005484FF4907103F068F8BDE8084003F057
:10559000D4BC00BF9011002038A700002C99000057
:1055A000F8B54FF080431E4FD3F80443012504F0B3
:1055B0001A04002604B9F8BDB4FA84F0C0F11F0043
:1055C000830003F580739BB203F1804305FA00F278
:1055D000196824EA02040029ECD01E601B684FF011
:1055E00080430128C3F808230FD1D3F81824D3F837
:1055F0001824920702D03B689847DBE70222C3F8E1
:105600001805C3F804239860D4E7064906484FF408
:10561000F47203F02BF803484FF4F47103F01DF813
:105620009011002038A700002C9900004FF0805303
:10563000D3F83021511C09BF4FF07043D3F83431F7
:1056400093F8E02FD3F8E83F08BFC3F30313062A0B
:1056500005D1033B042B04D8034AD05C70470020DB
:1056600070470120704700BFF3A7000008B502682B
:105670000146104603F07AFC50B90E490E484FF42B
:10568000747202F0F3FF4FF474710A4802F0E5FF00
:1056900002F01F0352090B6008D00649064840F289
:1056A000D93202F0E3FF40F2D931EEE74FF0A040EB
:1056B00008BD00BFB1A500002C990000072808B55F
:1056C0000AD90749074840F2A73202F0CFFF044841
:1056D00040F2A73102F0C1FF800000F5807008BDE4
:1056E00080A700002C99000010B5CBB200EB43035B
:1056F0009A8AD1051BD5C2F3432122F4F8529A822B
:1057000000F1520400F1120232F8023F13F4807FDC
:1057100003D0C3F34323994209D09442F4D100EB60
:10572000C10300225A60583003F094FB00B910BD49
:10573000054906484FF4DB7202F098FF02484FF427
:10574000DB7102F08AFF00BFB5A700002C990000B2
:1057500073B5CEB200EB46060546B38ADB070C46AE
:1057600028D503F0E2FC2146284603F009FC48B1A5
:10577000B28A2B68520B03EB82030022C3F8102578
:10578000C3F81025284621460025FFF7ADFFB58256
:1057900001A80194FFF76AFF019B00EB8300074B10
:1057A000D0F80027134043F00203C0F80037284622
:1057B00002B070BD6FF01500FAE700BFF0F8FCFF13
:1057C000F0B50D4685B01646044650B952495348C7
:1057D00040F23A4202F04AFF4F4840F23A4102F0AA
:1057E0003CFF1768CFB103F0D9FB00BBCDE9000047
:1057F0008DF80E008DF80F003B460DF10F020DF1F4
:105800000E01284603F0F4FBEAB204EB4202938A4D
:1058100023F0020343F001039382736853B32946D4
:1058200020461A785F6803F0B2FB18B1CFB16FF071
:10583000150022E0E9B204EB41018B8A23F46043B6
:1058400023F020038B8267B1032AF0D8736858686D
:105850002368077803EB87038AB9C3F81025C3F8D8
:105860001025E9B204EB41018B8A23F01C0343EAC3
:1058700082038B82B3684BBB002005B0F0BDD3F828
:10588000100520F00300C3F81005206800EB870026
:10589000D0F8103523F4473323F44073C0F81035A3
:1058A0002B02D0F810C503F4F85343EA024343EA4D
:1058B0000C03C0F8103504EB4703A3F85C508B8A47
:1058C00043EA473343F020038B82CAE7D3E90067FA
:1058D00029462046FFF708FF002ECDD063689E4280
:1058E00006D004F1580003F097FA002804DAC4E760
:1058F000A3689F42F5D1002004EBC003C3E9016710
:10590000EDB204EB4505C0B2AB8A43EA402343F451
:105910008073AB82B0E700BFB5A700002C990000F0
:10592000F0B50C4685B01E46054650B939493A488F
:1059300040F2444202F09AFE364840F2444102F0FE
:105940008CFE12B303F023FB20B92146284603F056
:1059500017FB08BBE7B205EB4707BB8A13F01C0F28
:1059600002D05378012B17D001238DF80F3000237C
:10597000CDE900230DF10F01931C2046013203F005
:1059800037FBBB8A43F00303BB82002E3FD0214686
:10599000284603F0FCFA18B96FF0150005B0F0BD09
:1059A00037782B6803EB87030022C3F81025C3F870
:1059B0001025E2B205EB42024FEA870C938A23F4EA
:1059C000604323F020039382707800B32968B6788F
:1059D00061440004D1F8103523F4981323F4F853EC
:1059E000C1F81035230200F4403003F4F8530343A8
:1059F0003005D1F8105500F4801003432B43C1F853
:105A00001035938A43EA473343F020039382002002
:105A1000C4E700BFB5A700002C99000008B550B935
:105A20000649074840F24D4202F020FE034840F28A
:105A30004D4102F012FEC0E9031208BDB5A70000F7
:105A40002C99000010B503460C4650B91149124874
:105A500040F2564202F00AFE40F256410D4802F072
:105A6000FCFD42B90B490C484FF4457202F0FEFDB3
:105A70004FF44571F2E703F083FA38B1E4B203EB77
:105A8000440300209B8A5B0B137010BD6FF0150060
:105A9000FBE700BFB5A700002C990000F8B505464C
:105AA00050B91B491B4840F2644202F0DFFD184820
:105AB00040F2644102F0D1FD90F86C4024BB4022DA
:105AC0002146143003F01AFC2E682746E0B2FFF797
:105AD000F5FDA0F580739B081F2B08BF375004F11C
